:100000000C94C5080C94ED080C94ED080C94761033
:100010000C9476100C9476100C94ED080C94ED086A
:100020000C94ED080C94ED080C94ED080C94ED087C
:100030000C94ED080C94ED080C94ED080C94ED086C
:100040000C94DB240C94ED080C9444100C941E10BA
:100050000C94ED080C94ED080C94ED080C94ED084C
:100060000C94ED080C94ED085741524E494E473A16
:1000700020436F6D6D756E69636174696F6E206684
:1000800061696C7572652C20697320746865204DF8
:100090004652433532322070726F7065726C79202F
:1000A000636F6E6E65637465643F00203D20287544
:1000B0006E6B6E6F776E2900203D20636F756E74D6
:1000C000657266656974206368697000203D2076FA
:1000D000322E3000203D2076312E3000203D20761B
:1000E000302E3000203D2028636C6F6E652900465D
:1000F00069726D776172652056657273696F6E3AC9
:10010000203078005265736574202D3E204545509F
:10011000524F4D20776972642067656CC3B6736374
:10012000687400496E666F726D6174696F6E2061EC
:100130006E6420636F6E747269627574696F6E208D
:1001400061742068747470733A2F2F746F6E7569C0
:100150006E6F2E64652E0A0063726561746564209B
:1001600062792054686F727374656E20566FC39FF6
:1001700020616E64206C6963656E73656420756EC2
:1001800064657220474E552F47504C2E00546F6EB9
:1001900055494E4F2056657273696F6E20322E316D
:1001A0000020207C5F7C207C5F5F5F7C5F7C5F7CCD
:1001B0005F5F5F5F5F7C5F5F5F5F5F7C5F7C5F5FF8
:1001C0005F7C5F5F5F5F5F7C0A0020207C207C207B
:1001D0007C202E207C2020207C20207C20207C2D38
:1001E0002020202D7C207C207C207C20207C202036
:1001F0007C007C5F2020205F7C5F5F5F205F5F5F13
:100200007C20207C20207C20202020207C2020207E
:100210007C207C20202020207C000A205F5F5F5F04
:100220005F2020202020202020205F5F5F5F5F2054
:100230005F5F5F5F5F205F5F5F5F5F205F5F5F5F4C
:100240005F003D3D3D20706F776572206F666621CF
:10025000003D3D3D2052657065617453696E676C69
:10026000654D6F6469666965722829003D3D3D20D2
:100270004B696E64657267617264656E4D6F64652B
:100280002829003D3D3D20546F64646C65724D6FBC
:1002900064652829003D3D3D204C6F636B656428F3
:1002A00029003D3D3D20467265657A6544616E6377
:1002B000652829003D3D3D20536C65657054696D8E
:1002C0006572282900556E6B6E6F776E2074797099
:1002D000650053414B20696E6469636174657320E6
:1002E000554944206973206E6F7420636F6D706C84
:1002F0006574652E004D494641524520544E503399
:10030000585858004D494641524520444553466986
:100310007265004D494641524520506C7573004D41
:10032000494641524520556C7472616C6967687426
:10033000206F7220556C7472616C69676874204319
:10034000004D494641524520344B42004D494641FB
:10035000524520314B42004D4946415245204D699E
:100360006E692C20333230206279746573005049F5
:10037000434320636F6D706C69616E74207769749C
:10038000682049534F2F49454320313830393220B6
:10039000284E464329005049434320636F6D706CDB
:1003A00069616E7420776974682049534F2F4945FD
:1003B000432031343434332D34006D6F6469666901
:1003C00065722072656D6F766564003A00446174F1
:1003D00061206F6E204361726420004D4946415296
:1003E000455F526561645F342829206661696C65E8
:1003F000643A20004D49464152455F526561645F51
:10040000332829206661696C65643A20004D4946AD
:100410004152455F526561645F32282920666169F7
:100420006C65643A20004D49464152455F52656112
:10043000645F312829206661696C65643A20004D4B
:1004400049464152455F52656164282920666169C9
:100450006C65643A2000202E2E2E0052656164697E
:100460006E6720646174612066726F6D20626C6FCC
:10047000636B20005043445F41757468656E746916
:10048000636174652829206661696C65643A20009F
:1004900041757468656E7469636174696E67204D37
:1004A000494641524520554C2E2E2E004175746808
:1004B000656E7469636174696E6720436C61737300
:1004C0006963207573696E67206B657920412E2EF4
:1004D0002E005049434320747970653A20004361EF
:1004E0007264205549443A000000000800020100EF
:1004F00000030407000000000000000055534220E4
:10050000656E746665726E7420005344204B617290
:10051000746520656E746665726E74200055534272
:100520002062657265697420005344204B617274C7
:1005300065206265726569742000555342206F6EB4
:100540006C696E6520005344204B61727465206FA6
:100550006E6C696E652000000000002300260029F3
:100560000000000000250028002B000404040404FF
:100570000404040202020202020303030303030150
:100580000204081020408001020408102001020427
:10059000081020556E6B6E6F776E206572726F72E9
:1005A0000041204D49464152452050494343207265
:1005B0006573706F6E6465642077697468204E415E
:1005C0004B2E00546865204352435F4120646F65A1
:1005D00073206E6F74206D617463682E00496E76AF
:1005E000616C696420617267756D656E742E004977
:1005F0006E7465726E616C206572726F7220696EC6
:100600002074686520636F64652E2053686F756C75
:1006100064206E6F742068617070656E2E004120DA
:10062000627566666572206973206E6F74206269F8
:100630006720656E6F7567682E0054696D656F750C
:100640007420696E20636F6D6D756E696361746986
:100650006F6E2E00436F6C6C697373696F6E2064EC
:10066000657465637465642E004572726F722069EB
:100670006E20636F6D6D756E69636174696F6E2E48
:1006800000537563636573732E0048C3B672627559
:100690006368204D6F6475732069737420616B7497
:1006A0006976202D3E20766F726865726967657283
:1006B00020547261636B20756E6420466F72747390
:1006C0006368726974742073706569636865726EBB
:1006D0000045696E7A656C204D6F64757320616B9F
:1006E000746976202D3E20547261636B20766F6EA4
:1006F00020766F726E6520737069656C656E00415F
:100700006E66616E6720646572205175657565203F
:100710002D3E20737072696E676520616E7320458F
:100720006E646520005061727479204D6F6475733A
:100730002069737420616B746976202D3E207A7570
:1007400072C3BC636B20696E20646572205165754D
:100750006575652000416C62756D6D6F6475732001
:1007600069737420616B746976202D3E20766F72F8
:100770006865726967657220547261636B003D3D04
:100780003D2070726576696F7573547261636B2872
:1007900029005370657A69616C6D6F6475732056BA
:1007A0006F6E2D4269733A205061727479202D3E2C
:1007B000204F72646E657220696E207A7566C3A4DC
:1007C0006C6C696765722052656968656E666F6CEE
:1007D000676520776965646572676562656E00208C
:1007E00062697320005370657A69616C6D6F64751E
:1007F0007320566F6E2D4269733A20416C62756D9D
:100800003A20616C6C65204461746569656E207A7C
:100810007769736368656E2053746172742D2075F7
:100820006E6420456E6464617465692073706965E7
:100830006C656E002062697320005370657A69618F
:100840006C6D6F64757320566F6E2D42696E3A2021
:1008500048C3B672737069656C202D3E207A756648
:10086000C3A46C6C6967656E20547261636B2077FA
:100870006965646572676562656E0048C3B67262D9
:10088000756368204D6F647573202D3E206B6F6D0E
:10089000706C657474656E204F72646E657220733F
:1008A0007069656C656E20756E6420466F72747336
:1008B000636872697474206D65726B656E0045695A
:1008C0006E7A656C204D6F647573202D3E206569CE
:1008D0006E65204461746569206175732064656D7F
:1008E000204F6472646E6572206162737069656C1A
:1008F000656E005061727479204D6F647573202DA0
:100900003E204F72646E657220696E207A7566C3F0
:10091000A46C6C696765722052656968656E666F64
:100920006C676520776965646572676562656E00EE
:10093000416C62756D204D6F647573202D3E206B88
:100940006F6D706C657474656E204F72646E657245
:1009500020776965646572676562656E0048C3B635
:1009600072737069656C6D6F647573202D3E207AAB
:100970007566C3A46C6C6967656E20547261636BA5
:1009800020776965646572676562656E0020446101
:10099000746569656E20696E204F72646E657220A1
:1009A000003D3D20706C6179466F6C64657228294A
:1009B0000053686F7274637574206E6F7420636F78
:1009C0006E6669677572656421003D3D3D20706CFF
:1009D000617953686F72744375742829004B617292
:1009E00074652077697264206E6575206B6F6E6622
:1009F0006967757269657274210041626765627228
:100A00006F6368656E21005265736574202D3E200A
:100A1000454550524F4D20776972642067656CC31D
:100A2000B673636874007363687265696265204BAE
:100A3000617274652E2E2E004162676562726F636B
:100A400068656E2100204B61727465206175666C6B
:100A50006567656E007363687265696265204B61E6
:100A60007274652E2E2E004162676562726F636834
:100A7000656E21003D3D3D2061646D696E4D656E82
:100A8000752829003D3D3D20777269746553657472
:100A900074696E6773546F466C6173682829003DF2
:100AA0003D3D20726573657453657474696E677338
:100AB00028290031202D3E2032003D3D3D20726529
:100AC00073657453657474696E6773282900416493
:100AD0006D696E204D656E752050696E3A2000413B
:100AE000646D696E204D656E75206C6F636B656417
:100AF0003A2000496E76657274656420566F6C7595
:100B00006D6520427574746F6E733A2000536C6586
:100B100065702054696D65723A20004C6F636B6597
:100B2000643A200045513A2000496E697469616C4D
:100B300020566F6C756D653A20004D696E696D6168
:100B40006C20566F6C756D653A20004D6178696D4B
:100B5000616C20566F6C756D653A20005665727336
:100B6000696F6E3A20003D3D3D206C6F61645365B6
:100B70007474696E677346726F6D466C6173682832
:100B800029003D3D3D20536C65657054696D65726B
:100B90003A3A6C6F6F702829202D3E20534C454502
:100BA0005021003D3D20536C65657054696D657240
:100BB0003A3A6765744163746976652829003D3D5A
:100BC0003D20467265657A6544616E63653A3A73A5
:100BD00065744E65787453746F7041744D696C6CB4
:100BE00069732829003D3D20467265657A65446138
:100BF0006E63653A3A6C6F6F702829202D3E20464F
:100C00005245455A4521003D3D20467265657A654D
:100C100044616E63653A3A676574416374697665E9
:100C20002829003D3D204C6F636B65643A3A68614A
:100C30006E646C6550617573652829202D3E204CCB
:100C40004F434B454421003D3D204C6F636B656431
:100C50003A3A68616E646C654E6578744275747476
:100C60006F6E2829202D3E204C4F434B45442100D8
:100C70003D3D204C6F636B65643A3A68616E646C0D
:100C80006550726576696F7573427574746F6E28FE
:100C900029202D3E204C4F434B454421003D3D2013
:100CA0004C6F636B65643A3A68616E646C65566F4D
:100CB0006C756D6555702829202D3E204C4F434B97
:100CC000454421003D3D204C6F636B65643A3A68B2
:100CD000616E646C65566F6C756D65446F776E28D8
:100CE00029202D3E204C4F434B454421003D3D20C3
:100CF0004C6F636B65643A3A68616E646C6552462A
:100D000049442829202D3E204C4F434B4544210087
:100D10003D3D20546F64646C65724D6F64653A3A72
:100D200068616E646C6550617573652829202D3E7D
:100D3000204C4F434B454421003D3D20546F64649B
:100D40006C65724D6F64653A3A68616E646C654EAD
:100D5000657874427574746F6E2829202D3E204C7E
:100D60004F434B454421003D3D20546F64646C6506
:100D7000724D6F64653A3A68616E646C6550726575
:100D800076696F7573427574746F6E2829202D3ED5
:100D9000204C4F434B454421003D3D20546F64643B
:100DA0006C65724D6F64653A3A68616E646C655645
:100DB0006F6C756D6555702829202D3E204C4F4372
:100DC0004B454421003D3D20546F64646C65724D79
:100DD0006F64653A3A68616E646C65566F6C756DE8
:100DE00065446F776E2829202D3E204C4F434B459C
:100DF0004421003D3D20546F64646C65724D6F6406
:100E0000653A3A6765744163746976652829003DDF
:100E10003D204B696E64657267617264656E4D6FEB
:100E200064653A3A68616E646C654E657874282929
:100E3000202D3E204E455854003D3D204B696E64A8
:100E4000657267617264656E4D6F64653A3A686198
:100E50006E646C654E657874427574746F6E282983
:100E6000202D3E204C4F434B454421003D3D204B1F
:100E7000696E64657267617264656E4D6F64653A30
:100E80003A68616E646C6550726576696F7573421D
:100E90007574746F6E2829202D3E204C4F434B45AE
:100EA0004421003D3D204B696E6465726761726448
:100EB000656E4D6F64653A3A68616E646C65524662
:100EC00049442829202D3E207175657565642100EF
:100ED0003D3D204B696E64657267617264656E4D5D
:100EE0006F64653A3A676574416374697665282969
:100EF000003D3D2052657065617453696E676C6595
:100F00004D6F6469666965723A3A68616E646C65D2
:100F10004E6578742829202D3E2052455045415475
:100F20002043555252454E5420545241434B003DAC
:100F30003D2052657065617453696E676C654D6FD5
:100F40006469666965723A3A676574416374697683
:100F50006528290048C3B67262756368204D6F64C6
:100F600075732069737420616B746976202D3E203F
:100F70006EC3A463687374657220547261636B20DE
:100F8000756E6420466F727473636872697474203E
:100F900073706569636865726E0045696E7A656C29
:100FA000204D6F64757320616B746976202D3E202F
:100FB0005374726F6D2073706172656E00456E645C
:100FC0006520646572205175657565202D3E20622F
:100FD0006567696E6E6520766F6E20766F726E65DE
:100FE000005061727479202D3E20776569746572B6
:100FF00020696E2064657220517565756520004119
:101000006C62756D6D6F6475732069737420616BAC
:10101000746976202D3E206EC3A463687374657274
:1010200020547261636B3A200048C3B672737069D2
:10103000656C6D6F6475732069737420616B74697E
:1010400076202D3E206B65696E656E206E65756538
:101050006E20547261636B20737069656C656E00FD
:101060003D3D3D206E657874547261636B282900A4
:101070003D3D3D207365747374616E64627954699B
:101080006D65722829003D3D3D2064697361626C85
:10109000657374616E6462792829003D3D3D207658
:1010A0006F6C756D6555702829003D3D3D20766F4C
:1010B0006C756D65446F776E282900203D3D3D00BD
:1010C0003D3D3D2000204F7074696F6E7329003DD7
:1010D0003D3D20766F6963654D656E752829202832
:1010E000003D3D3D2073657475704361726428292D
:1010F000004D49464152455F577269746528292061
:101100006661696C65643A2000202E2E2E005772AD
:101110006974696E67206461746120696E746F2000
:10112000626C6F636B20005043445F417574686567
:101130006E7469636174652829206661696C6564F1
:101140003A200041757468656E7469636174696EF4
:101150006720554C2E2E2E0041757468656E74699B
:10116000636174696E6720616761696E2075736978
:101170006E67206B657920412E2E2E000000000046
:10118000240027002A00522C672D11241FBECFEF08
:10119000D8E0DEBFCDBF12E0A0E0B1E0E0E1F0E6D4
:1011A00002C005900D92A032B107D9F724E0A0E269
:1011B000B2E001C01D92A93EB207E1F718E0C4EC0D
:1011C000D8E004C02197FE010E94C62EC33CD1077F
:1011D000C9F70E9425250C94FB2F0C9400008F92D8
:1011E0009F92AF92BF92CF92DF92EF92FF920F93B6
:1011F0001F93CF93DF93EC016A017B0100E010E0C5
:101200000C151D0561F10E94CF24688779878A87B4
:101210009B87E881F9810284F385E02DCE01099551
:1012200097FF17C00E94CF2488849984AA84BB8426
:10123000DC01CB0188199909AA09BB098C809D8022
:10124000AE80BF8088159905AA05BB0510F368011B
:1012500006C0F70181937F010F5F1F4FD1CFC601F9
:10126000DF91CF911F910F91FF90EF90DF90CF9082
:10127000BF90AF909F908F9008958F92AF92BF9242
:10128000CF92DF92EF92FF920F93CF93DF93CDB780
:10129000DEB764970FB6F894DEBF0FBECDBF062F42
:1012A000E62EF12CA701BC01CE0101960E94F22F7F
:1012B00021E030E02C0F3D1F2E0D3F1D402FBE01C1
:1012C0006F5F7F4F8EE594E00E94B011811125C0C1
:1012D00082E18C8B1B8A0E5F1F92812CCE0143967C
:1012E0005C0101966C0143977C019C0140E36CE03A
:1012F0008EE594E00E94FC110F9081110EC08C8944
:10130000813051F48B89843039F481E099819A30AD
:1013100009F480E0819501C081E064960FB6F894ED
:10132000DEBF0FBECDBFDF91CF910F91FF90EF9049
:10133000DF90CF90BF90AF908F900895009769F0A5
:10134000FC0101900020E9F73197AF01481B590BD0
:10135000BC0187E693E00C945A0E80E090E008957B
:101360008FE092E00C949E090F931F93CF93DF932D
:101370008C01C0E0D0E0F801EC0FFD1F6491662302
:1013800041F087E693E00E94ED0E892B11F0219643
:10139000F2CFCE01DF91CF911F910F910895CF939E
:1013A000DF930E94B409EC010E94B0098C0F9D1FCD
:1013B000DF91CF910895BF92CF92DF92EF92FF928B
:1013C0000F931F93CF93DF93CDB7DEB72A970FB656
:1013D000F894DEBF0FBECDBFD82E8AE0B82E8E01A6
:1013E0000F5F1F4F7E0188E0E80EF11CCC24C394F0
:1013F000D801EB2D1D92EA95E9F741E050E0B801E4
:1014000080916E0490916F040E94EF088130C9F5BD
:1014100089818E3791F749E050E0BE016E5F7F4FC2
:1014200080916E0490916F040E94EF088F5F8A3064
:1014300058F18A818F3F59F58B81863041F58A8535
:101440008F3E29F5FE01329680E090E02191820FD7
:10145000911DEE16FF06D1F72885398532272327FF
:1014600032279195819591092817390799F42C8194
:101470008E819F81982789279827DD2009F45EC0F7
:101480000CC081E890E00CC082E890E009C083E8DD
:1014900090E006C084E890E003C0D21213C05CC0A4
:1014A0000097B1F00E94672080916E0490916F04C4
:1014B000DC01ED91FC910084F185E02D0995892BEB
:1014C00039F408C02E3320F52C3338F00E947A1DF1
:1014D000D1108ECF80E090E03FC02A3361F481FFCD
:1014E00005C089E295E00E94CF09F2CF80FFF0CFDE
:1014F0008DE195E0F8CF2B3309F07ACF81FF03C05F
:101500008AE095E0F0CF80FFE3CF8CEF94E0EBCF63
:101510002F3371F481FF05C0C092760486E495E014
:10152000E2CF80FFD5CFC09276048AE395E0DBCF8F
:10153000203409F05DCF0E946720CCCF2E3338F4E1
:101540002C3320F62A3359F22B33C1F2C3CF2F3379
:1015500009F3203481F3BECF2A960FB6F894DEBF8C
:101560000FBECDBFDF91CF911F910F91FF90EF90F4
:10157000DF90CF90BF9008958F929F92AF92BF92CD
:101580000F931F93CF93DF93CDB7DEB7A1970FB61D
:10159000F894DEBF0FBECDBF19A2423008F44AE076
:1015A0008E010F5D1F4F842E912CA12CB12CA50113
:1015B00094010E946D2EE62FB901CA010150110954
:1015C000EA3014F4E05D01C0E95CD801EC93232B10
:1015D000242B252B61F7C8010E949E09A1960FB606
:1015E000F894DEBF0FBECDBFDF91CF911F910F9159
:1015F000BF90AF909F908F900895CF93DF93BC01E1
:1016000080E090E04AE00E94BC0AEC010E94B00930
:101610008C0F9D1FDF91CF910895AB01682F41156D
:10162000510521F487E693E00C94ED0E70E080E024
:1016300090E00C94BC0ACF93DF936AE070E00E94C4
:101640000D0BEC010E94B0098C0F9D1FDF91CF9113
:101650000895CF92DF92EF92FF92CF93DF9397FF9F
:101660001BC06B017C016DE287E693E00E94ED0EEA
:10167000EC0166277727CB016C197D098E099F093C
:101680004AE00E94BC0A8C0F9D1FDF91CF91FF9012
:10169000EF90DF90CF9008954AE0DF91CF91FF90D7
:1016A000EF90DF90CF900C94BC0AFC0187818823D7
:1016B00099F0428553856485758586859785A089CF
:1016C000B189481B590B6A0B7B0B81E0483E5340A4
:1016D0006105710508F480E0089580916E04909191
:1016E0006F04DC01ED91FC910084F185E02D0995FA
:1016F0000A9724F080E00E94DB09EFCF0895CF9293
:10170000DF92EF92FF920F931F93CF93DF93CDB7AA
:10171000DEB72A970FB6F894DEBF0FBECDBF8E019D
:101720000F5F1F4F9AE0D8011D929A95E9F79EE747
:1017300099839FEF9A8396E09B839FEE9A878C8391
:101740007E836F83FE0132969E01285F3F4F80E0CB
:1017500090E04191840F911D2E173F07D1F791958D
:1017600081959109988789870E94CF24C090700441
:10177000D0907104E0907204F0907304AB01BC014E
:101780004C195D096E097F0980917404909175046C
:10179000A0E0B0E0481759076A077B0720F0809166
:1017A0007604811109C00E946D0B61E070E080E059
:1017B00090E00E949524D8CF82E390E09093750446
:1017C0008093740480916E0490916F04DC01ED911C
:1017D000FC910280F381E02D4AE050E0B8010995C8
:1017E0000E94CF24609370047093710480937204FC
:1017F000909373042A960FB6F894DEBF0FBECDBF48
:10180000DF91CF911F910F91FF90EF90DF90CF90DC
:10181000089570E0782B8FE00C947F0BBC0183E17E
:101820000C947F0B60E070E08EE00C947F0B60E026
:1018300070E08DE00C947F0BBC0182E10C947F0B77
:101840000F931F93CF93DF9300D0CDB7DEB7611511
:10185000710581F08B0190EA99838A8362E0CE0161
:1018600001960E943D09811106C060E1C8010E94F5
:101870003D0901C086E00F900F90DF91CF911F913D
:101880000F9108956F927F928F92AF92BF92CF92F5
:10189000DF92EF92FF920F93CF93DF93CDB7DEB736
:1018A00064970FB6F894DEBF0FBECDBF3C018BE14D
:1018B0008983809161038A83809162038B83809105
:1018C00063038C83809164038D839E012A5F3F4F65
:1018D00045E0BE016F5F7F4F8EE594E00E94B0113E
:1018E00081111BC01C8A85E08B8B1F92812CCE013D
:1018F00044965C01FE0173966F0143977C0107E0FB
:101900009C0140E36CE08EE594E00E94FC1199811B
:10191000F30190839A8191830F9064960FB6F894A7
:10192000DEBF0FBECDBFDF91CF910F91FF90EF9043
:10193000DF90CF90BF90AF908F907F906F90089581
:101940008F92AF92BF92CF92DF92EF92FF920F935E
:10195000CF93DF93CDB7DEB72C970FB6F894DEBFE9
:101960000FBECDBF90E699838A8381E693E0AE01F6
:101970004D5F5F4FDE011996FC012191CF01FA0105
:101980002193AF01EA17FB07B9F7E0916004F0E09B
:10199000E35AFB4FCE010D9621912D93A817B9075D
:1019A000D9F71F92812CA12CB12CC12CD12CE12C68
:1019B000F12C0CE09E012F5F3F4F40E16EE08EE581
:1019C00094E00E94FC110F902C960FB6F894DEBFA5
:1019D0000FBECDBFDF91CF910F91FF90EF90DF90C1
:1019E000CF90BF90AF908F900895CF93DF93EC018D
:1019F00080916E0490916F04DC01ED91FC91008464
:101A0000F185E02D09951816190624F480E00E944E
:101A1000DB09EECFBE018EE40E947F0B8EE4DF91E6
:101A2000CF910C94DB090F931F930E94CF246093F6
:101A30006F0370937003809371039093720387E632
:101A400093E00E94A70E97FF1FC00E94CF24009131
:101A50006F03109170032091710330917203DC01C8
:101A6000CB01801B910BA20BB30B00916B03109168
:101A70006C0320916D0330916E0380179107A207CC
:101A8000B307E8F28FEF9FEF1F910F91089548E0A1
:101A900060E18EE594E00C940E138F92AF92BF92AA
:101AA000CF92DF92EF92FF920F93CF93DF9300D00C
:101AB00000D0CDB7DEB780E589831A829E012D5F05
:101AC0003F4F42E0BE016F5F7F4F8EE594E00E9482
:101AD000B01181111AC01F92812CA12CB12CC12CE4
:101AE000D12CE12CF12C04E09E012F5F3F4F40E30D
:101AF0006CE08EE594E00E94FC110F90833021F0A1
:101B0000811103C081E001C080E00F900F900F9021
:101B10000F90DF91CF910F91FF90EF90DF90CF90DA
:101B2000BF90AF908F9008958F92AF92BF92CF9257
:101B3000DF92EF92FF920F93CF93DF9361157105C0
:101B400019F1FA0190819231F8F06A01EB0190E30A
:101B5000988389839B012E5F3F4F42E08EE594E09E
:101B60000E94B011811111C081E08F93812CA12CB2
:101B7000B12C7E0104E09E0140E36CE08EE594E030
:101B80000E94FC110F9001C084E0DF91CF910F9172
:101B9000FF90EF90DF90CF90BF90AF908F9008951F
:101BA000CF93DF93282F30E0F901E851FB4F849168
:101BB000F901E158FA4FD491F901E559FA4FC4916E
:101BC000CC2391F081110E943024EC2FF0E0EE0F35
:101BD000FF1FE95AFA4FA591B491EC91ED2381E0F2
:101BE00090E021F480E002C080E090E0DF91CF91AE
:101BF00008951F93CF93DF93282F30E0F901E85128
:101C0000FB4F8491F901E158FA4FD491F901E5595C
:101C1000FA4FC491CC23C1F0162F81110E943024B9
:101C2000EC2FF0E0EE0FFF1FEF59FA4FA591B491A2
:101C30009FB7F894111104C08C91D095D82302C09D
:101C4000EC91DE2BDC939FBFDF91CF911F91089524
:101C5000DF92EF92FF920F931F93CF93DF938C014C
:101C6000F62ED42EE52E83E590E00E947D2060E0E4
:101C7000F80186850E94F90D82E10E947620CD2D23
:101C8000DE2DCE018F0D911D7C01EC16FD0621F09D
:101C900089910E947620F9CF61E0F80186850E9443
:101CA000F90DDF91CF911F910F91FF90EF90DF9091
:101CB0000C947520CF92DF92EF92FF920F931F93B7
:101CC000CF93DF936C017A018B01C0E0D0E0CE1599
:101CD000DF0581F0D8016D918D01D601ED91FC9168
:101CE0000190F081E02DC6010995892B11F0219614
:101CF000EECF7E01C701DF91CF911F910F91FF9031
:101D0000EF90DF90CF900895FC01538D448D252FE7
:101D100030E0842F90E0821B930B541710F0CF9685
:101D2000089501970895FC01918D828D981761F0B7
:101D3000828DDF01A80FB11D5D968C91928D9F5F02
:101D40009F73928F90E008958FEF9FEF0895FC01AD
:101D5000918D828D981731F0828DE80FF11D858D60
:101D600090E008958FEF9FEF0895FC01918D228DF3
:101D7000892F90E0805C9F4F821B91098F73992778
:101D8000089587E693E00E94B50E21E0892B09F4BF
:101D900020E0822F0895FC01848DDF01A80FB11D82
:101DA000A35ABF4F2C91848D90E001968F73992791
:101DB000848FA689B7892C93A089B1898C9183706F
:101DC00080648C93938D848D981306C00288F38968
:101DD000E02D80818F7D80830895EF92FF920F9395
:101DE0001F93CF93DF93EC0181E0888F9B8D8C8DC7
:101DF000981305C0E889F989808185FD26C0F62EF3
:101E00000B8D10E00F5F1F4F0F731127E02E8C8D8D
:101E1000E8120CC00FB607FCFACFE889F989808177
:101E200085FFF5CFCE010E94CB0EF1CF8B8DFE0149
:101E3000E80FF11DE35AFF4FF0829FB7F8940B8F24
:101E4000EA89FB89808180620AC09FB7F894EE8995
:101E5000FF896083E889F989808183708064808349
:101E60009FBF81E090E0DF91CF911F910F91FF9094
:101E7000EF900895CF93DF93EC01888D8823C9F00C
:101E8000EA89FB89808185FD05C0A889B9898C9183
:101E900086FD0FC00FB607FCF5CF808185FFF2CF1E
:101EA000A889B9898C9185FFEDCFCE010E94CB0E18
:101EB000E7CFDF91CF91089580E090E0892B29F062
:101EC0000E94C10E81110C940000089520912202FD
:101ED000309123022817390771F4909120028091E4
:101EE0002102981741F0E0912002F0E0EA56FB4F02
:101EF000808190E008958FEF9FEF089508951F93DC
:101F0000CF93DF93DC015C968D919C915D97009758
:101F100039F421E030E013963C932E9312973BC0A6
:101F20005196ED91FC91529750962C915097322FEB
:101F300030951FB75E964C915E97742F727041FD7D
:101F40006095F8944081772311F0422B01C0432320
:101F50004083EC012197F1F748E0508160FF02C017
:101F6000522B01C053235083EC012197F1F7669562
:101F7000415099F78081772319F08323808302C031
:101F8000282B20831FBF5C968D919C915D970197B4
:101F9000F1F781E090E0DF91CF911F9108952091BA
:101FA0002202309123022817390771F4809121020F
:101FB0002091200290E0805C9F4F821B910960E499
:101FC00070E00E949E2E089580E090E00895209198
:101FD00022023091230228173907B9F49091200288
:101FE00080912102981789F0E0912002F0E0EA56F2
:101FF000FB4F80812091200230E02F5F3F4F2F73F5
:1020000033272093200290E008958FEF9FEF0895EB
:10201000089580E090E00895BC016E5F7F4FDC0181
:10202000ED91FC910190F081E02D40E0099591E067
:10203000811190E0892F08950E94ED2F1F920F9239
:102040000FB60F9211242F933F934F935F936F938B
:102050007F938F939F93AF93BF93EF93FF9387E605
:1020600093E00E94CB0EFF91EF91BF91AF919F91B2
:102070008F917F916F915F914F913F912F910F9031
:102080000FBE0F901F9018951F920F920FB60F92D0
:1020900011242F938F939F93EF93FF93E0917703F6
:1020A000F09178038081E0917D03F0917E0382FDC1
:1020B00012C09081809180038F5F8F732091810384
:1020C000821751F0E0918003F0E0E959FC4F958FC1
:1020D0008093800301C08081FF91EF919F918F9148
:1020E0002F910F900FBE0F901F9018951F920F9277
:1020F0000FB60F9211242F933F934F935F936F93DB
:102100007F938F939F93AF93BF93EF93FF93E09150
:102110002202F0912302309709F451C0968DA685D2
:10212000B785858591FF04C09C91892329F447C018
:102130009C91892309F043C0A389B4899C91858926
:10214000809589238C93868997890197F1F7608D13
:10215000718DA685B785558538E020E0CB010197C4
:10216000F1F7822F90E095958795282F4C91452384
:1021700009F02068315091F7868D81FD209580917E
:10218000210290E001968F73992730912002381731
:1021900049F0A0912102B0E0AA56BB4F2C93809346
:1021A000210203C0868D8160868F828D938D019779
:1021B000F1F7A389B4899C918589892B8C93FF9130
:1021C000EF91BF91AF919F918F917F916F915F91AF
:1021D0004F913F912F910F900FBE0F901F90189528
:1021E000FC012781211102C08185089580E00895B6
:1021F000CF92DF92EF92FF920F931F93CF93DF93D3
:10220000EC010E94CF246B017C0188810E94D00DDB
:102210009C018E8191E0811103C0232B21F402C027
:10222000232B09F090E04E855F85688979899701B5
:102230008601041B150B260B370B49815A816B81D4
:102240007C81041715072607370710F419860CC080
:102250008F8188879F83292F28272987981721F026
:10226000CE86DF86E88AF98ACA86DB86EC86FD861A
:102270008F81DF91CF911F910F91FF90EF90DF90B1
:10228000CF9008958430D9F050F4813091F030F13E
:10229000823091F08330F9F48AE396E00895863035
:1022A000A1F080F08730A1F08F3FA9F481EA95E09A
:1022B000089589E696E0089584E596E008958EE114
:1022C00096E008958FEE95E008958DED95E00895E0
:1022D00083EC95E0089583E995E0089581E896E020
:1022E00008951F93CF93DF93EC01162F83E590E0C1
:1022F0000E947D2060E08E850E94F90D812F80680C
:102300000E94762080E00E947620182F61E08E8562
:102310000E94F90D0E947520812FDF91CF911F91AE
:1023200008950F931F93CF93DF93EC01062F142F83
:1023300083E590E00E947D2060E08E850E94F90D8B
:10234000802F0E947620812F0E94762061E08E856A
:102350000E94F90DDF91CF911F910F910C94752080
:10236000CF92DF92EF92FF920F931F93CF93DF9361
:10237000EC016B01142F790140E062E00E949111A1
:1023800044E06AE0CE010E94911140E864E1CE0190
:102390000E949111A601612FCE010E94280E43E0F8
:1023A00062E0CE010E94911108E813E16AE0CE01DB
:1023B0000E94711182FF13C040E062E0CE010E94D2
:1023C000911164E4CE010E947111F701808362E4EF
:1023D000CE010E947111F701818380E004C0015099
:1023E000110921F783E0DF91CF911F910F91FF90A9
:1023F000EF90DF90CF9008953F924F925F926F924F
:102400007F928F929F92AF92BF92CF92DF92EF9284
:10241000FF920F931F93CF93DF9300D0CDB7DEB71A
:102420003C01162F942E2901A114B10419F0F501D5
:10243000408101C040E0342EF0E18F9E300C112429
:1024400040E062E0C3010E9491114FE768E0C301E0
:102450000E94911140E864E1C3010E949111A20120
:10246000602FC3010E94280E432D6AE1C3010E9420
:102470009111412F62E0C3010E9491111C3051F46F
:102480006AE1C3010E947111482F40686AE1C301EB
:102490000E94911100ED17E068E0C3010E947111E4
:1024A000982F992139F480FD03C001501109A1F73B
:1024B00083E0A0C06CE0C3010E947111982E83716B
:1024C00009F095C0E114F10409F459C0C114D10414
:1024D00009F455C064E1C3010E947111582EF60140
:1024E0008081851508F47DC050825520E9F183E58F
:1024F00090E00E947D2060E0F30186850E94F90D46
:102500005A9482E90E9476208820A1F00FEF10E013
:1025100001C0000F8A94EAF782E90E947620202FFA
:102520002095F701908192238023892B8083882432
:10253000839401C0812C082D10E00E0D1F1D851401
:1025400038F482E90E947620F80180838394F3CFE7
:1025500080E00E947620F801808361E0F3018685A7
:102560000E94F90D0E94752068E1C3010E9471115B
:102570008770A114B10421F0F501808301C080E0CF
:1025800093FC31C0E114F10481F1C114D10469F16B
:102590009E89992351F1F6014081413021F4843024
:1025A00041F58FEF27C0423020F1811122C0425007
:1025B0009E012F5F3F4FB701C3010E94B0118111EF
:1025C00019C0F6018081E80EF11CF7013297908165
:1025D000898198130EC0319690818A81981309C021
:1025E00004C084E007C082E005C080E003C081E051
:1025F00001C087E00F900F90DF91CF911F910F9155
:10260000FF90EF90DF90CF90BF90AF909F908F9012
:102610007F906F905F904F903F9008950F931F931E
:10262000CF93DF938C01D62FC42F0E947111C095D8
:102630004C2F48236D2FC801DF91CF911F910F912F
:102640000C9491116F927F928F92AF92BF92CF9222
:10265000DF92EF92FF920F93CF93DF9300D000D0E1
:102660001F92CDB7DEB73C0182E08D8340E064E28B
:10267000C3010E94911140E066E2C3010E949111E2
:1026800046E268E4C3010E94911186E28B838D814A
:10269000823020F140E86CE1C3010E940E1387E014
:1026A0008C831F92812CCE0104965C0101966C01F3
:1026B00004977C0101E09E012D5F3F4F40E36CE0F9
:1026C000C3010E94FC110F9081110BC08D818230DB
:1026D00039F481E09C81911104C008C084E001C0FC
:1026E00081E091E0823019F090E001C091E0892F03
:1026F0000F900F900F900F900F90DF91CF910F914F
:10270000FF90EF90DF90CF90BF90AF908F907F9031
:102710006F9008952F923F924F925F926F927F92A7
:102720008F929F92AF92BF92CF92DF92EF92FF92E1
:102730000F931F93CF93DF93CDB7DEB72D970FB6CF
:10274000F894DEBF0FBECDBF413508F004C14D8700
:102750002B013C0140E86CE10E940E1331E03C8704
:102760008C85823091F08330F1F0813009F0F5C032
:1027700083E989839D859923D9F081E0F2019081D5
:10278000953008F480E0912C18C0F5E9F9833D8577
:10279000332381F081E0F2019081983008F480E0E9
:1027A00043E0942E0AC087E9898336E0932E04C063
:1027B000912C02C023E0922E80E01D85F8E09F9EC0
:1027C0001019112417FD10E0882321F098E89B834D
:1027D00033E001C032E021E0912F977009F420E04E
:1027E000912F959595959595290F29F4882309F4AE
:1027F00091C0185F8FC0811102C094E001C093E0C6
:10280000291708F4922FE92DF0E03196E40DF51D1B
:10281000232F4191A1E0B0E0AC0FBD1FA20FB11D6D
:102820004C932F5F422F431B491798F3DFCF811141
:10283000DFC010320CF093C010E230E73A839B8186
:102840008C8189279D8189279E8189278F839E017D
:10285000285F3F4F47E0BE016F5F7F4FC3010E947B
:10286000B0118111A3C01A8683E08B87FE013796D1
:102870001F0109E08A84482D4295407F480D6AE196
:10288000C3010E9491111F92CE010A965C01FE01C4
:102890003B966F0171019E012F5F3F4F40E36CE05B
:1028A000C3010E94FC11082F0F90823009F0BFCFA6
:1028B0006CE1C3010E94711185FD9AC08F7109F40A
:1028C00080E2282F30E0412F110F550B421753079C
:1028D0000CF043C0182F822F85958595859591E042
:1028E000980F422F477081E009F480E0890FE1E002
:1028F000F0E0EC0FFD1FE80FF11D215031092770AA
:10290000332781E090E001C0880F2A95EAF7908193
:10291000892B808310320CF090CF912F97709A877B
:10292000812F8595859585958E5F292FF0E18F9F65
:10293000200D11242A8301E0911101C000E0080F4D
:1029400022242394312C2C0E3D1E280E311C39E0FC
:10295000381B3B878FCF06E04BC005E049C08B8119
:10296000883809F442C082E094E0E92DF0E0319625
:10297000E40DF51D980FA1E0B0E0AC0FBD1FA80F4E
:10298000B11D2C9121938F5F8913F5CF8B858330F7
:1029900041F58A85811125C09E012D5F3F4F41E0A1
:1029A000B101C3010E94B011882311F0082F20C08B
:1029B0009B81F1018181981316C09C8182819813BB
:1029C00012C0808182FF04C0FC85FF5FFC87C8CEF7
:1029D000F20183878C85880F9C84980E9394908253
:1029E00007C001E005C007E003C083E093E0BDCF6E
:1029F000802F2D960FB6F894DEBF0FBECDBFDF91AE
:102A0000CF911F910F91FF90EF90DF90CF90BF90EB
:102A1000AF909F908F907F906F905F904F903F907E
:102A20002F9008954F925F926F927F928F929F9214
:102A3000AF92BF92CF92DF92EF92FF920F931F93CC
:102A4000CF93DF93CDB7DEB729970FB6F894DEBFEB
:102A50000FBECDBF182F0E94EC1C0E94120C84E701
:102A60009AE00E94CF0910925C0311119DC08091E1
:102A70005302813009F44DC38230C9F48FED93E0E5
:102A80000E941C0CCE0101960E94CA23882309F4DF
:102A900040C3FE013196A4E5B2E0CE010596319126
:102AA0002D91321336C3E817F907C9F77DC083307B
:102AB00009F07AC00E94CE2D2AE030E040E050E0DC
:102AC0000E943B2E4B015C016B017C012AE0C20E8F
:102AD000D11CE11CF11C1C2D0E94CE2D2B013C01B0
:102AE00080EE93E00E941C0C0E947E1CC6010E9496
:102AF0001C0C0E94CE2D22E030E040E050E00E940D
:102B00003B2E6130710581059105A9F4C301B20125
:102B100029E030E040E050E00E943B2EDC01CB0198
:102B20000196A11DB11DB82EDC2CD80E0E947E1C72
:102B300081EE93E01EC081E0C816D104E104F104E7
:102B400089F00E94CE2DA5019401275F3F4F4F4F82
:102B50005F4F0E943B2E6B017C012FEFC21AD20AFD
:102B6000E20AF20ABC2CD12EDC180E947E1C82EEF6
:102B700093E00E941C0C0E947E1C8B2D90E00E9412
:102B80001C0C8D2D0E941B0BC12CE12CF12C00E0A4
:102B900010E020E040E050E060E070E08FEF90E077
:102BA0000E94BB21D812B5C2CC24C394E12CF12CD5
:102BB00000E010E020E044E853E064E873E08CE0DB
:102BC00090E00E94BB2190E0009709F4A2C28130FE
:102BD0009105E9F480E293E00E941C0C8CE494E0FF
:102BE0000E94F8108AE394E00E94F81088E294E0D2
:102BF0000E94F8108AE394E00E94F010811108C24C
:102C000088E294E00E94F010811102C20EC282306C
:102C10009105D9F4E0913A02F0E0E0903902F12C0C
:102C2000EE1AFF0AC12C00E010E020E0AF0162EADA
:102C300073E08EE190E08E1B9F0B0E94BB21909170
:102C40003A02890F80933902DEC183309105A1F4E5
:102C5000E0903A02F12C8091390290E0C12C00E022
:102C600010E020E040E050E063EA73E001970E944A
:102C7000BB2180933A02C7C18430910519F5209198
:102C80003A0230E0E0903B02F12CE21AF30A8FEFB7
:102C9000E81AF80AA901415051098091390290E0DF
:102CA000821B930BC12C00E010E020E064EA73E08B
:102CB00001960E94BB2190913A029150890F809316
:102CC0003B02A1C185309105C9F4E0903C02F12C92
:102CD000C12C00E010E020E048E953E068E973E02F
:102CE00086E090E00E94BB2180933C02682F70E058
:102CF0006150710987E00E947F0B85C18630910584
:102D000009F050C087E493EBA7E3B3E189839A838A
:102D1000AB83BC8381E08D831E8218861986CC2408
:102D2000C394E12CF12C00E010E020E04AEC53E0E9
:102D30006AEC73E086E090E00E94BB21D82E8823E5
:102D400009F461C18C111BC0C12C20E040EC53E0A0
:102D500060EC73E084E090E00E94BB21823059F087
:102D600020F4813061F485E009C0833031F0843093
:102D700031F48CE303C08FE001C08EE1888780E2EC
:102D800093E00E941C0C0E94611C8AE394E00E9464
:102D9000F01081115EC188E294E00E94F010811170
:102DA00058C15AC187309105C9F4C12CE12CF12CCE
:102DB00000E010E020E04CEA53E06CEA73E084E0CD
:102DC00090E00E94BB2124E0829FC0011124815C1D
:102DD0009D4F0E94202380E991E0D6C08830910564
:102DE00009F040C0C12CE12CF12C00E010E020E003
:102DF00040EC53E060EC73E085E090E00E94BB2182
:102E00008330F1F050F48130B1F0823009F0FBC032
:102E10008FE090E0A0E0B0E017C08430F1F08530A2
:102E200009F0F1C010923E0210923F02109240024F
:102E300010924102E8C085E090E0A0E0B0E004C05C
:102E40008EE190E0A0E0B0E080933E0290933F02DC
:102E5000A0934002B0934102D6C08CE390E0A0E082
:102E6000B0E0F2CF8930910509F05CC087E493EBC4
:102E7000A7E3B3E189839A83AB83BC8381E08D832D
:102E800084E08F83C12CE12CF12C00E010E021E0E4
:102E900040E050E06DE271E083E690E00E94BB21EB
:102EA000982EA82EB12CC5010E94F50C850121E0B9
:102EB00040E050E061E471E00E94BB21D82EC501E2
:102EC0000E94F50CED2CF12C21E040E050E062E492
:102ED00071E00E94BB21F82E88EA93E00E941C0C4E
:102EE0000E947E1CFD1408F48EC08D2D90E00E947F
:102EF0001C0CD8866AE070E08D2D0E940D0B85E4D5
:102F00009AE00E94CF090E94611C8AE394E00E942B
:102F1000F0108111F6C088E294E00E94F010811157
:102F2000F0C0C4C08A309105B9F4C12CE12CF12C59
:102F300000E010E020E045EA53E065EA73E082E05B
:102F400090E00E94BB21823021F481E08093420214
:102F50005AC01092420257C08B309105C1F487E0ED
:102F60009AE00E94CF09E12CF12C60E0C7010E9499
:102F700080208FEFE81AF80AE11424E0F206A9F79E
:102F80000E942C1F87EE93E00E941C0C3CC00C9703
:102F9000D1F5C12CE12CF12C00E010E020E044ED53
:102FA00053E064ED73E084E090E00E94BB2190E088
:102FB0008130910519F41092530225C08230910599
:102FC00011F481E01EC083309105C1F48FED93E0D0
:102FD0000E941C0CCE0101960E94CA23882399F0FE
:102FE00089819A81AB81BC81809354029093550270
:102FF000A0935602B093570282E003C0049719F4DD
:1030000083E0809353020E94091F0E94F91C81C033
:103010008AEF99E00E94B40982E293E00E941C0CBE
:103020000E944D0D0E94470DEECF8EE594E00E9468
:103030002213882309F4D2CD8EE594E00E940C106F
:10304000882371F38DED99E00E94B4090E949023CA
:10305000E7CF87E69AE057C08EE594E00E942213FE
:10306000882309F490CE8EE594E00E940C1088230A
:1030700051F285E59AE00E94CF09DF8209811A8129
:103080002B813C814D815E816D2D788589850E94E3
:10309000BB2064E670E080E090E00E9495240E94EE
:1030A0004D0D0E94470D0E947E1CADCF8EE594E031
:1030B0000E942213882309F426CF8EE594E00E9413
:1030C0000C108823E1F086E29AE00E94CF099E82EC
:1030D00009811A812B813C814D81592D6F81788521
:1030E00089850E94BB2064E670E080E090E00E9449
:1030F00095240E944D0D0E94470D0E947E1CD39482
:10310000F1CE88E39AE00E94CF0982E293E00E9428
:103110001C0C29960FB6F894DEBF0FBECDBFDF9111
:10312000CF911F910F91FF90EF90DF90CF90BF90C4
:10313000AF909F908F907F906F905F904F90089589
:103140008F929F92AF92BF92CF92DF92EF92FF92B7
:103150000F931F9381EA99E00E94CF090E94EC1C13
:1031600081E080935C031092DB041092DA04E0911A
:103170005A03F0915B03808190E00E94F50C9093DC
:10318000D9048093D80421E030E03093D704209311
:10319000D604BC0180E090E04AE00E94BC0A8DE8C1
:1031A00099E00E94B409E0915A03F0915B03808199
:1031B0000E941B0BE0915A03F0915B0381818130E7
:1031C000B1F58DE599E00E94CF092091D8043091A6
:1031D000D90479018FEFE81AF80A82E0E816F104C1
:1031E00098F00E94CE2D870120E030E0A9019801DF
:1031F00021503109410951090E943B2EDC01CB01CC
:103200000196A11DB11D04C081E090E0A0E0B0E0F6
:1032100090935903809358030E94FD0AE0915A034A
:10322000F0915B036091580380810E94090CE0914A
:103230005A03F0915B038181823091F480E399E03D
:103240000E94CF0981E090E0909359038093580346
:10325000E0915A03F0915B0361E080810E94090CC8
:10326000E0915A03F0915B0381818330A9F483EFED
:1032700098E00E94CF090E940D2081E090E0909399
:10328000590380935803E0915A03F0915B036091D6
:10329000590280810E94090CE0915A03F0915B036E
:1032A0008181843091F48EEB98E00E94CF09E09107
:1032B0005A03F0915B036281862F90E0909359034B
:1032C0008093580380810E94090CE0915A03F09189
:1032D0005B038181853031F58BE798E00E94CF094F
:1032E000E0915A03F0915B03F0808F2D90E00E94F3
:1032F000252E90E09093590380935803009739F05E
:103300002091D8043091D9042817390730F481E08E
:1033100090E09093590380935803609158038F2D48
:103320000E94090CE0915A03F0915B038181873080
:1033300009F053C08AE398E00E94CF09E0915A0354
:10334000F0915B036AE070E082810E940D0B84E3E0
:1033500098E00E94B409E0915A03F0915B038381E5
:103360000E941B0BE0915A03F0915B03C380D12CA8
:10337000D092D904C092D8048FEFC81AD80AE12C91
:10338000F12C8280912CA12CB12C8C149D04AE04C4
:10339000BF049CF4C818D908EA08FB0839F00E9459
:1033A000CE2DA70196010E943B2E03C060E070E085
:1033B000CB01860E971EA81EB91E909259038092CB
:1033C0005803C4010E94FD0AE0915A03F0915B0387
:1033D0006091580380810E94090CE0915A03F0919A
:1033E0005B038181883061F585EE97E00E94CF090B
:1033F000E0915A03F0915B036AE070E082810E94E1
:103400000D0B8FED97E00E94B409E0915A03F09103
:103410005B0383810E941B0BE0915A03F0915B03D5
:10342000838190E09093D9048093D8046281862FA1
:1034300090E0909359038093580380810E94090C77
:10344000E0915A03F0915B038181893079F582E93B
:1034500097E00E94CF09E0915A03F0915B038281CB
:1034600090E09093D7048093D604838190E090936A
:10347000D9048093D8040E940D2081E090E09093BD
:10348000590380935803E0915A03F0915B036091D4
:10349000590280811F910F91FF90EF90DF90CF90A4
:1034A000BF90AF909F908F900C94090C1F910F913B
:1034B000FF90EF90DF90CF90BF90AF909F908F9054
:1034C0000895CF93C82F8AEC99E00E94CF098C2FE2
:1034D0000E941B0B24E0C29FC0011124FC01EC5C84
:1034E000FD4F2785222389F08D5B9D4F90935B03D1
:1034F00080935A030E94A0180E94EC1C68EE73E0AF
:1035000080E090E0CF910C94952481EB99E0CF91ED
:103510000C94CF0980915E0390915F03009761F452
:103520008EE797E00E94CF09E0915A03F0915B0388
:103530008181823059F40CC0DC01ED91FC91028450
:10354000F385E02D0995882359F308958830E9F42F
:1035500085E597E00E94CF09809158039091590327
:103560002091D6043091D7048217930729F0019750
:103570009093590380935803E0915A03F0915B03B1
:103580006091580380810E94090CE0915A03F091E8
:103590005B038181833011F0893099F58091580364
:1035A00090915903019751F085E297E00E94B40988
:1035B0008091580390915903019708C08FEF96E0CE
:1035C0000E94B4098091D8049091D9049093590332
:1035D00080935803E0915803F0915903E85AFD4F46
:1035E00080810E941B0BE0915803F0915903E85A27
:1035F000FD4FA0915A03B0915B0360818C910E94B2
:10360000090CE0915A03F0915B038181843069F4E5
:1036100081ED96E00E94CF09E0915A03F0915B039F
:103620006091580380810E94090CE0915A03F09147
:103630005B038181853019F58AE896E00E94CF0905
:1036400080915803909159038130910529F0019799
:103650009093590380935803E0915A03F0915B03D0
:103660006091580380810E94090CE0915A03F09107
:103670005B0380816091580390E00E94802068EE97
:1036800073E080E090E00E94952468EE73E080E0B3
:1036900090E00C94952480915E0390915F030097D5
:1036A00089F40E94CE2D20E030E041E050E00E94FD
:1036B0003B2ECB010E947A1D68EE73E080E090E023
:1036C0000C949524DC01ED91FC910084F185E02DB2
:1036D0000995882331F3089583E0089580E00895E3
:1036E00080E0089580E008958FE29FE00E94CF0976
:1036F00086E0089580ED9EE00E94CF0985E0089560
:103700008CE69EE00E94CF0981E0089589E39EE067
:103710000E94CF0981E0089583EF9DE00E94CF09C8
:1037200084E0089585EC9DE00E94CF0981E0089532
:1037300089E99DE00E94CF0981E0089587E69DE038
:103740000E94CF0981E0089589E39DE00E94CF099E
:1037500081E0089580E19DE00E94CF0981E0089515
:103760008DEE9CE00E94CF0981E0089584EC9CE0FE
:103770000E94CF0981E008958DE99CE00E94CF0965
:1037800081E0089580E79CE00E94CF0981E00895E0
:1037900087E49CE00E94CF0981E0089583E29CE0E9
:1037A0000E94CF0981E0089587E09CE00E94CF0944
:1037B00082E0089583EA9BE00E94CF0981E00895AA
:1037C0001F93CF93DF93EC018FE09EE00E94CF091F
:1037D0001B851123E9F01B8689E0FE013296AAE2DF
:1037E000B2E001900D928A95E1F78FE292E090931A
:1037F0005B0380935A0380912F020E941B0BE09180
:103800005A03F0915B0381810E941B0B0E94A01858
:10381000812FDF91CF911F9108950C94642F809197
:103820005E0390915F030097A9F48AEA90E10E94F9
:10383000CF0990913A02809124029817A8F460E091
:1038400070E085E00E947F0B80912402815080937C
:1038500024020AC0DC01ED91FC910684F785E02D7D
:103860000995882311F30895809124020C941B0B71
:1038700080915E0390915F030097A9F48BE990E13A
:103880000E94CF0990913902809124028917A8F4EF
:1038900060E070E084E00E947F0B809124028F5FE3
:1038A000809324020AC0DC01ED91FC910484F5852B
:1038B000E02D0995882311F30895809124020C943A
:1038C0001B0B8CE494E00E94F8108AE394E00E94C1
:1038D000F81088E294E00E94F81086E194E00E94DB
:1038E000F81084E094E00C94F81084E00E94D00D6D
:1038F00021E0892B09F020E0822F0895CF92DF92FA
:10390000EF92FF920E94CF246B017C0128EEC20E41
:1039100023E0D21EE11CF11C0E946D0B0E94751C5D
:10392000811107C00E94CF246C157D058E059F056F
:1039300098F368EE73E080E090E00E9495240E9486
:103940006D0B0E94751C8111FACFFF90EF90DF90F4
:10395000CF90089581EF9EE00E94CF0962E370E06E
:1039600080E090E00E9495240E94751C81110DC09A
:10397000E0915A03F0915B036091580380810E94AB
:10398000090C1092DB041092DA0481E008950F9381
:103990001F93CF93DF93EC018B0183EA9EE00E949B
:1039A000CF0989E0F801DE01129601900D928A9507
:1039B000E1F781E08B870E94751C811107C0E881C7
:1039C000F9810480F581E02DCE01099581E0DF9138
:1039D000CF911F910F91089586E890E10E94CF0941
:1039E00010922502109226021092270210922802AD
:1039F0000895CF92DF92EF92FF9280E790E10E94CC
:103A0000CF0980913E0290913F02A0914002B09177
:103A10004102892B8A2B8B2BE9F00E94CF246B016A
:103A20007C0120913E0230913F0240914002509132
:103A30004102A0E6BAEE0E945A2EC60ED71EE81E1C
:103A4000F91EC0922502D0922602E0922702F0923F
:103A5000280208C010922502109226021092270216
:103A6000109228026091250270912602809127020F
:103A7000909128024AE00E94BC0AFF90EF90DF90EC
:103A8000CF900C94B0090F931F93CF93DF93FC0159
:103A90004281538164817581452B462B472B29F147
:103AA000EC010E94CF240A811B812C813D810617E5
:103AB000170728073907C8F482E89BE00E94CF095E
:103AC0000E94120C0E94F91C10925F0310925E0378
:103AD000209759F0E881F9810688F789E02DCE0119
:103AE000DF91CF911F910F910994DF91CF911F9199
:103AF0000F910895CF93DF93EC010E94FD0A80910E
:103B00005E0390915F03009741F48091DA049091F5
:103B1000DB04C817D90759F4EAC0DC01ED91FC9128
:103B20000480F581E02D0995882379F3E0C0D093D6
:103B3000DB04C093DA0480915C03882309F4D7C0C6
:103B400080E690E10E94CF09E0915A03F0915B0377
:103B50008181813011F0873031F489E290E10E9457
:103B6000CF090E94F91CE0915A03F0915B03818117
:103B7000823011F0883021F560915803709159031B
:103B80008091D8049091D90468177907B9F06F5FD4
:103B90007F4F709359036093580380810E94090CF2
:103BA0008FEF9FE00E94B409609158037091590310
:103BB00080E090E04AE00E94BC0A02C00E94F91C2A
:103BC000E0915A03F0915B038181833011F08930D9
:103BD000E9F58091D8049091D90401962091D604FA
:103BE0003091D704821B930B2091580330915903D5
:103BF0008217930751F081EE9FE00E94B4098091F3
:103C0000580390915903019606C08DEB9FE00E94E6
:103C1000CF0981E090E09093590380935803E0919D
:103C20005803F0915903E85AFD4F80810E941B0B05
:103C3000E0915803F0915903E85AFD4FA0915A03BF
:103C4000B0915B0360818C910E94090CE0915A0352
:103C5000F0915B038181843031F48AE99FE00E9416
:103C6000CF090E94F91CE0915A03F0915B03818116
:103C70008530A9F580915803909159032091D8047B
:103C80003091D9048217930719F101969093590343
:103C90008093580384E59FE00E94B4098091580303
:103CA000909159030E94FD0AE0915A03F0915B0341
:103CB0006091580380810E94090CE0915A03F091B1
:103CC0005B0380816091580390E00E94802007C0D0
:103CD000808161E090E00E9480200E94F91C64EFE6
:103CE00071E080E090E0DF91CF910C949524DF911A
:103CF000CF9108958F929F92AF92BF92CF92DF9211
:103D0000EF92FF92CF93DF93EC01CF80D12C8FEF16
:103D1000C81AD80A0D2C000CEE08FF088E80912CD2
:103D2000A12CB12C8C149D04AE04BF049CF4C818C3
:103D3000D908EA08FB0839F00E94CE2DA7019601A8
:103D40000E943B2E03C060E070E0CB01860E971E00
:103D5000A81EB91E8EEB9BE00E94CF09C4010E94F1
:103D6000FD0A0E94CF2448EE53E0489D9001499DF2
:103D7000300D589D300D1124DC01CB01820F931FB3
:103D8000A11DB11D8A839B83AC83BD83DF91CF913D
:103D9000FF90EF90DF90CF90BF90AF909F908F906B
:103DA00008950F931F93CF93DF93FC0142815381BA
:103DB00064817581452B462B472B29F1EC010E942C
:103DC000CF240A811B812C813D8106171707280704
:103DD0003907C8F485EE9BE00E94CF090E94751C4C
:103DE000882351F08DE291E00E940E0C64EF71E0A7
:103DF00080E090E00E949524CE01DF91CF911F9149
:103E00000F910C947A1EDF91CF911F910F9108951D
:103E10000895FF920F931F93CF93DF9384E89AE066
:103E20000E94CF0904E312E0C4E6D0E0F801F1906B
:103E30008F01CE010E94252EF81621F06F2DCE01A4
:103E40000E942D2E2196C838D10581F7DF91CF91A0
:103E50001F910F91FF9008958FE99AE00E94CF097A
:103E6000E4E3F2E087E493EBA7E3B3E1808391839B
:103E7000A283B38382E0848384E1858385E08683A3
:103E80008AE0878381E080871186128613861486F4
:103E9000158686871786138A178A138E178E80A336
:103EA00081A382A383A30C94091F0F931F93CF9325
:103EB000DF9386E69BE00E94CF0904E312E0C4E6AC
:103EC000D0E0CE010E94252EF80181938F0121962A
:103ED000C838D105B1F78091340290913502A09194
:103EE0003602B09137028734934BA743B34111F0A8
:103EF0000E942C1FC0913802C130B9F48AEB9AE0BD
:103F00000E94CF0983EB9AE00E94CF0982E0809360
:103F1000380210925302C0935402C0935502C093CA
:103F20005602C09357020E94091F8CE59BE00E9435
:103F3000B409809138020E941B0B8BE49BE00E9425
:103F4000B409809139020E941B0B8AE39BE00E9416
:103F5000B40980913A020E941B0B89E29BE00E9407
:103F6000B40980913B020E941B0B84E29BE00E94FB
:103F7000B40980913C020E941B0B8BE19BE00E94E4
:103F8000B40960913D0270E080E090E00E94290B4E
:103F90000E94B0098DE09BE00E94B40960913E024E
:103FA00070913F0280914002909141020E94290B42
:103FB0000E94B00983EF9AE00E94B4096091420226
:103FC00070E080E090E00E94290B0E94B0098FED24
:103FD0009AE00E94B409809153020E941B0B8EEC60
:103FE0009AE00E94B4096AE070E0809154020E9455
:103FF0000D0B6AE070E0809155020E940D0B6AE0A3
:1040000070E0809156020E940D0B80915702DF9163
:10401000CF911F910F910C941B0BEF92FF920F9376
:104020001F93CF93DF938091D8049091D90460912E
:10403000D6047091D704FC013196E61BF70BA62F2E
:1040400020E0422F50E04E175F0740F4EA01C75AC4
:10405000DD4F322F3A0F38832F5FF3CF8F5F861BF0
:104060008F3F11F4F12C07C0E82FF0E0E75AFD4F25
:1040700010828F5FF5CF2091D8043091D9042F5F43
:104080003F4F8091D6049091D7048901081B190BEA
:10409000CF2DD0E0C017D10798F40E94CE2DC75A7B
:1040A000DD4FE880980140E050E00E943B2EE62F73
:1040B000F0E0E75AFD4F80818883E082F394DBCF04
:1040C000DF91CF911F910F91FF90EF900895CF93C3
:1040D000DF93EC010E94B00982E192E00E949E0908
:1040E000CE01DF91CF910C94FD0A08958EBD0000A2
:1040F0000DB407FEFDCF8EB508958CBD9DBD08950E
:104100001F93CF93DF93EC01162F0E94252E1817D3
:1041100039F0612FCE01DF91CF911F910C942D2E9C
:10412000DF91CF911F910895EF92FF920F931F930C
:10413000CF93DF93EC017C01E60EF11CCE15DF0579
:1041400099F08E018881803118F08BE192E002C0F5
:104150008DE192E00E949E09219660E170E0F801F5
:1041600080810E940D0BEACFDF91CF911F910F91BB
:10417000FF90EF900895DF92EF92FF920F931F93BD
:10418000CF93DF93CDB7DEB7A9970FB6F894DEBF14
:104190000FBECDBF09A31AA32BA33CA34DA35EA3BF
:1041A0006FA378A789A77E0181E1E80EF11C80E169
:1041B000F70111928A95E9F783E1898B87E38A8B6E
:1041C00083EB8B8B87E48C8B82E08D8B8EA18E8B27
:1041D0008FA18F8B88A5888F89A5898FE0916B042B
:1041E000EF77E13428F4F0E0E256FE4F108101C091
:1041F00010E00DEF010F033040F488E591E10E94DB
:10420000CF0987E00E94A00C0CC0163061F419821F
:104210001A8283E491E10E94CF09CE0101960E94A7
:10422000420C8093290280912902882379F087E249
:1042300091E10E94B409809129020E9442110E94DA
:10424000CF0981E991E00E941C0C87C08EE091E1CA
:104250000E94B4096AE070E084E00E940D0B89E0DE
:1042600091E10E94CF0960E1C7010E9494200E9461
:10427000B009033018F4B70184E04EC0163009F0DD
:104280004FC080E1D82E8E010F5F1F4FF8018D2D9A
:1042900011928A95E9F784E0F701D80101900D9217
:1042A0008A95E1F7B80188E00E94200C80932902EA
:1042B000F8018D2D11928A95E9F784E0FE0175963B
:1042C000D80101900D928A95E1F7B80189E00E942A
:1042D000200C80932902F8018D2D11928A95E9F71F
:1042E00084E0FE017996D80101900D928A95E1F75C
:1042F000B8018AE00E94200C80932902F8011192F3
:10430000DA94E9F784E0FE017D96D80101900D92E0
:104310008A95E1F7B8018BE00E94200C8093290276
:1043200080912902882369F081EF90E10E94B4090D
:10433000809129020E9442110E94CF0981E991E0F7
:1043400002C080E991E00E941C0C0E94B00960ED5F
:1043500077E080E090E00E949524A9960FB6F8944B
:10436000DEBF0FBECDBFDF91CF911F910F91FF90A8
:10437000EF90DF9008954F925F926F927F929F929D
:10438000AF92BF92CF92DF92EF92FF920F931F9363
:10439000CF93DF936C01CB015A01D22F009711F01C
:1043A0000E941C0C8FEC90E10E94B409B6010D2C08
:1043B000000C880B990B0E94290B85EC90E10E9460
:1043C000CF09CE2DFF24F39487E693E00E94B50E2B
:1043D00018161906CCF50E94130DFC0197FD0BC0B1
:1043E0008D32910559F0C0970A9740F087E693E027
:1043F0000E94930EF0CF80E090E020C0412C512C21
:104400003201912CE130F10509F0EBC087E693E031
:104410000E94930E0E94130DFC01C0970A9790F31F
:10442000E130F10579F3992041F070946094509453
:104430004094411C511C611C711CC201009721F069
:10444000C816D9060CF0ECC00E94611C0E946D0BCE
:104450008CE494E00E94550B882349F082E293E0BB
:104460000E941C0C81E080935D038E2DD9C08CE4EA
:1044700094E00E94F0108823B9F0CC2379F080EC0E
:1044800090E10E94B4096AE070E08C2F0E940D0B4D
:104490008BEB90E10E94CF098C2FC2C068EE73E0D5
:1044A00080E090E00E9495248AE394E00E94550BFE
:1044B0008823B9F06C2E712C8AE0680E711CC6142A
:1044C000D7040CF43601C62D862D0E941B0BC501A6
:1044D000860D911D0E941C0C0E947E1CF0925802B9
:1044E00033C08AE394E00E94F010882369F1809140
:1044F0005802811127C06C2E712C8FEF681A780A30
:10450000C614D7040CF43601C62D862D0E941B0B51
:10451000C501860D911D0E941C0CDD23A9F00E948F
:104520007E1C0115110519F461E0862D02C0662D6F
:10453000802F0E94090C68EE73E080E090E00E94FA
:10454000952402C01092580288E294E00E94550B14
:104550008823A1F08C2F90E00C9714F0CA5001C072
:10456000C1E08C2F0E941B0BC5018C0F911D0E9476
:104570001C0C0E947E1CF092330226CF88E294E04D
:104580000E94F010882309F41FCF8091330281111B
:1045900025C08C2F90E0039714F0C15001C0C1E0FA
:1045A0008C2F0E941B0BC5018C0F911D0E941C0CAF
:1045B000DD2309F409CF0E947E1C0115110519F4B1
:1045C00061E08C2F02C06C2F802F0E94090C68EED6
:1045D00073E080E090E00E949524F6CE10923302C2
:1045E000F3CEED32F105C9F0CF01C0970A9708F07C
:1045F0000DCFAAE0B0E0A30192010E945A2E2F0134
:10460000FF0F66087708460E571E681E791E80E366
:10461000481A510861087108F9CE99249394F6CE8E
:10462000DF91CF911F910F91FF90EF90DF90CF908E
:10463000BF90AF909F907F906F905F904F90089544
:10464000CF92EF92FF920F931F93CF93DF93EC01E2
:10465000CC24C394E12CF12C00E010E021E040E0F8
:1046600050E06DE271E083E690E00E94BB21888318
:10467000811102C080E04CC0CC24C394E12CF12C09
:1046800000E010E020E046E351E066E371E089E0FD
:1046900090E00E94BB218983882361F3843071F408
:1046A000088110E0C8010E94F50CC12C21E040E017
:1046B00050E060E471E00E94BB218A8389818630EA
:1046C00019F418828FEF8983898187508330F8F439
:1046D000088110E0C8010E94F50CC12CE12CF12CDE
:1046E00021E040E050E061E471E00E94BB21E82E4F
:1046F0008A83088110E0C8010E94F50CF12C21E0AA
:1047000040E050E062E471E00E94BB218B8381E0D5
:10471000DF91CF911F910F91FF90EF90CF9008956F
:104720000F931F93CF93DF93CDB7DEB729970FB6C3
:10473000F894DEBF0FBECDBF0E94120C81EE90E157
:104740000E94CF09CE0106960E942023882389F07B
:104750000E94120C0E94751C8111FCCF09811A81E4
:104760002B813C814D815E816F81788589850E9496
:10477000BB2068EE73E080E090E00E9495242996CB
:104780000FB6F894DEBF0FBECDBFDF91CF911F9162
:104790000F910895EF92FF920F931F93CF93DF93A2
:1047A0008C01C0E0FF24F39482E0E82ED3E0C43013
:1047B00050F50E94611C8CE494E00E94550B81111D
:1047C00022C08CE494E00E94F010882329F0F801C4
:1047D000EC0FF11DF082CF5F8AE394E00E94F010AD
:1047E000882329F0F801EC0FF11DE082CF5F88E209
:1047F00094E00E94F0108823D1F2F801EC0FF11D33
:10480000D083CF5FD4CF81E0DF91CF911F910F9103
:10481000FF90EF9008953FB7F8948091E104909154
:10482000E204A091E304B091E40426B5A89B05C07E
:104830002F3F19F00196A11DB11D3FBFBA2FA92F1F
:10484000982F8827820F911DA11DB11DBC01CD019C
:1048500042E0660F771F881F991F4A95D1F7089588
:10486000833081F028F4813099F08230A1F00895EE
:104870008730A9F08830B9F08430D1F4809180007D
:104880008F7D03C0809180008F7780938000089592
:1048900084B58F7702C084B58F7D84BD08958091E3
:1048A000B0008F7703C08091B0008F7D8093B000FF
:1048B0000895CF93DF9390E0FC01E158FA4F2491E3
:1048C000FC01E559FA4F8491882361F190E0880F4B
:1048D000991FFC01E458FE4EC591D491FC01EF599B
:1048E000FA4FA591B491611109C09FB7F8948881DE
:1048F000209582238883EC912E230BC0623061F4D3
:104900009FB7F8948881322F309583238883EC9168
:104910002E2B2C939FBF06C08FB7F894E8812E2BC7
:1049200028838FBFDF91CF9108958F929F92AF928E
:10493000BF92CF92DF92EF92FF926B017C010E94B7
:104940000B244B015C01C114D104E104F104F1F02A
:104950000E940B24DC01CB0188199909AA09BB0923
:10496000883E9340A105B10570F321E0C21AD10839
:10497000E108F10888EE880E83E0981EA11CB11CA6
:10498000C114D104E104F10419F7DDCFFF90EF90D9
:10499000DF90CF90BF90AF909F908F9008952FB7EA
:1049A000F8946091DD047091DE048091DF049091B1
:1049B000E0042FBF08951F920F920FB60F9211249B
:1049C0002F933F938F939F93AF93BF938091DD0479
:1049D0009091DE04A091DF04B091E0043091DC04FA
:1049E00023E0230F2D3720F40196A11DB11D05C032
:1049F00026E8230F0296A11DB11D2093DC048093AD
:104A0000DD049093DE04A093DF04B093E004809172
:104A1000E1049091E204A091E304B091E4040196D2
:104A2000A11DB11D8093E1049093E204A093E304DF
:104A3000B093E404BF91AF919F918F913F912F91DB
:104A40000F900FBE0F901F901895CF93DF93CDB7A7
:104A5000DEB7A7970FB6F894DEBF0FBECDBF789430
:104A600084B5826084BD84B5816084BD85B5826073
:104A700085BD85B5816085BD80916E008160809324
:104A80006E0010928100809181008260809381008D
:104A9000809181008160809381008091800081609D
:104AA000809380008091B10084608093B1008091F8
:104AB000B00081608093B00080917A008460809320
:104AC0007A0080917A00826080937A0080917A00E7
:104AD000816080937A0080917A00806880937A0068
:104AE0001092C100A0917703B091780382E08C937B
:104AF000A0917303B09174031C92A0917503B091BF
:104B0000760380E18C9310927F03A0917B03B09198
:104B10007C0386E08C93A0917903B0917A038C9109
:104B200080618C93A0917903B0917A038C91886015
:104B30008C93A0917903B0917A038C9180688C93C7
:104B4000A0917903B0917A038C918F7D8C9380E052
:104B5000A7E4A0937C0090917A00906490937A00EF
:104B600090917A0096FDFCCF909178002091790089
:104B7000E92FE170F0E08F01FF0F220B330B982F2C
:104B80009F7104C0000F111F221F331F9A95D2F787
:104B900040275127622773278F5F8038D1F6411550
:104BA00051056105710521F0CB01BA010E941C2E4F
:104BB0008AE192E00E94CF0982EF91E00E94CF0942
:104BC0008AEC91E00E94CF0981EA91E00E94CF092E
:104BD0008DE891E00E94CF0988E591E00E94CF091D
:104BE00083E291E00E94CF0960E084E00E945924B2
:104BF0000E94551F0E94F91CE0916E04F0916F0411
:104C0000138E128E118E108E178A168A8DE991E0FE
:104C1000958F848F9485963108F04EC02DEB30E04F
:104C2000378B268B2BE931E0318F208F2CE231E05E
:104C3000338F228F30916800983058F021E09E30F9
:104C400008F420E091E0892F01C0880F2A95EAF747
:104C500001C084E0832B809368009485983038F0FD
:104C60009E3040F0963148F020E030E008C02DE65C
:104C700030E005C02BE630E002C02CE630E0348B9B
:104C8000238B983030F481E001C0880F9A95EAF7C1
:104C90000EC0292F30E09E3018F42850310902C090
:104CA0002E50310981E001C0880F2A95EAF7858BE3
:104CB000848D958D0197F1F7828D938D892B49F124
:104CC0004091220250912302E417F50711F141159A
:104CD000510571F0DA0153962D913C915497D90109
:104CE0009C91DA0155968C9180958923D9018C93FA
:104CF000868D8E7F868F1092210210922002F09373
:104D00002302E0932202A389B4899C918589892B8F
:104D10008C93E0916E04F0916F0480E197E2A0E043
:104D2000B0E084839583A683B7830E94CF246093E9
:104D3000700470937104809372049093730460ED17
:104D400077E080E090E00E94952460913B026093C0
:104D5000240270E086E00E947F0B60913C0270E0CC
:104D60006150710987E00E947F0B1FB7F894809112
:104D70006003811127C0E5E7F5E08491E9E8F5E0FB
:104D80009491E82FF0E0EE0FFF1FE458FE4EA5913E
:104D9000B491EC91E92321F461E08AE00E94F90DDD
:104DA00061E08AE00E9459248CB580618CBD8CB58D
:104DB00080648CBD61E08DE00E94592461E08BE04D
:104DC0000E945924809160038F5F809360031FBF0E
:104DD00061E080916C040E94592461E080916C0430
:104DE0000E94F90D80916D048F3F09F45CC160E071
:104DF0000E94592480916D040E94D00D892B09F0E6
:104E000052C161E080916D040E94592460E080915C
:104E10006D040E94F90D83E090E00197F1F761E0E5
:104E200080916D040E94F90D62E370E080E090E0F3
:104E30000E9495240FC0115069F062E370E080E099
:104E400090E00E94952462E08EE594E00E9471114A
:104E500084FDF1CF40E064E28EE594E00E94911180
:104E600040E066E28EE594E00E94911146E268E43B
:104E70008EE594E00E94911140E864E58EE594E0AF
:104E80000E94911149EA66E58EE594E00E94911135
:104E900043E068E58EE594E00E94911148EE6AE5F2
:104EA0008EE594E00E94911140E46AE28EE594E080
:104EB0000E9491114DE362E28EE594E00E9491110F
:104EC00068E28EE594E00E947111982F9370933000
:104ED00039F0482F436068E28EE594E00E9491111A
:104EE0006EE68EE594E00E947111182F8FEE90E02F
:104EF0000E94B40960E170E0812F0E940D0B10390F
:104F000079F038F4123191F0183899F484EE90E089
:104F100012C0113941F0123961F48CEC90E00BC0F1
:104F20008CED90E008C084ED90E005C088EB90E047
:104F300002C08BEA90E00E94CF0911501E3F20F082
:104F400088E690E00E94CF098FEF80936103809301
:104F5000620380936303809364038093650380936B
:104F6000660362E08EE00E94592462E08FE00E94B6
:104F7000592462E080E10E94592462E081E10E94AC
:104F8000592462E082E10E94592461E087E00E9496
:104F9000592460E087E00E94F90D8EE00E94D00D58
:104FA000892B09F58FE00E94D00D892BE1F480E177
:104FB0000E94D00D892BB9F484E091E00E94CF09C2
:104FC00000E010E0C8010E94252E882321F060E057
:104FD000C8010E942D2E0F5F1F4F0115B4E01B0763
:104FE00089F70E94551F83E00E94611AA6E56A2E88
:104FF000A1E07A2EB6E2EB2EB1E0FB2E1EE3C12E2D
:1050000011E0D12E0EE0A02E01E0B02E86E8882E11
:1050100081E0982E209025023090260240902702B1
:1050200050902802211431044104510439F00E94A7
:10503000CF242616370648065906E8F10E946D0B64
:1050400080915E0390915F03009739F0DC01ED9150
:10505000FC910190F081E02D09950E94611C8CE487
:1050600094E00E94550B182F81110DC08AE394E043
:105070000E94550B811107C088E294E00E94550BF5
:10508000882309F44AC080915304882309F445C059
:1050900080914104882309F440C080912F04882323
:1050A00009F43BC0DFC34FE062E08EE594E00E946C
:1050B000911113E0C2CE82E492E00E94CF0961E038
:1050C00087E00E94F90D64EF71E080E090E00E94BB
:1050D000952443E068E28EE594E00E940E1362E0BE
:1050E0008EE594E00E947111482F406162E08EE5E8
:1050F00094E00E94911160E070E08AE00E947F0BD2
:1051000083B7817F846083BFF89483B7816083BF56
:10511000889583B78E7F83BF91CF8CE494E00E9403
:10512000F010882349F180915E0390915F0300970E
:1051300029F480915D0381111CC00AC0DC01ED914E
:10514000FC910280F381E02D0995882391F387C3B8
:105150000E94751C882329F00E94120C0E94F91CE1
:1051600008C080915C03882321F00E94170C0E94E4
:10517000EC1C10925D0338C01123B1F180915D03E6
:10518000811132C080915E0390915F03009749F0D6
:10519000DC01ED91FC910280F381E02D09958111F4
:1051A0005EC30E94751C882309F478C3A0915A033A
:1051B000B0915B0311969C911197933009F068C3ED
:1051C000E0915803F0915903E85AFD4F80819850BF
:1051D000923020F412969C91891B8F5F90E00E9480
:1051E0000E0C81E080935D038AE394E00E94550BEE
:1051F000811115C08AE394E00E94F010882379F0B1
:1052000080915802811109C080914202811103C02E
:105210000E944B1B02C00E94381C1092580288E268
:1052200094E00E94550B811115C088E294E00E9421
:10523000F010882379F080913302811109C08091A8
:105240004202811103C00E948A1A02C00E940F1CF0
:105250001092330286E194E00E94F010882389F0D6
:105260000E94751C882351F080914202811103C075
:105270000E94381C06C00E944B1B03C081E00E94A4
:10528000611A84E094E00E94F010882389F00E9463
:10529000751C882351F080914202811103C00E9445
:1052A0000F1C06C00E948A1A03C082E00E94611A85
:1052B0008EE594E00E942213882309F4ABCE8EE59C
:1052C00094E00E940C10082F882309F4C8C28EEDC8
:1052D00094E00E94B4096091600481E694E00E9429
:1052E00094200E94B00982ED94E00E94B409E091FC
:1052F0006B04EF77E134B0F5F0E0E256FE4F108139
:10530000153021F178F4123089F128F4113059F573
:1053100086E993E02DC01330B1F0143021F58CE410
:1053200093E026C01830C1F038F4163091F01730F1
:10533000D1F483E193E01CC0193089F01F3F99F448
:1053400082ED92E015C087E593E012C081E493E01E
:105350000FC08FE193E00CC084E093E009C085EFBB
:1053600092E006C010E085EC92E002C08EE693E089
:105370000E94CF0982E18EA3FDEF5F2E510EB2E0B5
:10538000B51540F08CEA94E00E94CF0987E00E94B6
:10539000A00C0CC0163061F419821A8280E994E0E6
:1053A0000E94CF09CE0101960E94420C80932902EF
:1053B00040902902442031F084E794E00E94B4092F
:1053C000842D6EC0E2E0E515F8F08BE594E00E94D4
:1053D000B4096AE070E084E00E940D0B86E594E079
:1053E0000E94CF09AE014A5D5F4FBE016D5E7F4FE7
:1053F00084E00E94940D182F80932902882309F4D9
:1054000077C08FE394E049C0163009F071C082E1A3
:105410008DA3AE014B5D5F4FBE016F5F7F4F88E094
:105420000E94940D182F80932902882319F086E298
:1054300094E033C084E0FE013196DE015396019082
:105440000D928A95E1F7AE014B5D5F4FBE016F5F34
:105450007F4F89E00E94940D182F809329028823A2
:1054600019F08DE094E019C084E0FE013196DE0170
:10547000579601900D928A95E1F7AE014B5D5F4F13
:10548000BE016F5F7F4F8AE00E94940D182F8093BA
:105490002902882351F084EF93E00E94B409812F00
:1054A0000E9442110E94CF09D6C184E0FE013196CC
:1054B000DE015B9601900D928A95E1F7AE014B5D9E
:1054C0005F4FBE016F5F7F4F8BE00E94940D182FDE
:1054D00080932902882319F08BED93E0DECF84E0DE
:1054E000FE013196DE015F9601900D928A95E1F7FB
:1054F0008DEC93E00E94B4098BEC93E00E94CF09FD
:1055000060E1CE0143960E9494200E94B0090E945F
:10551000B0098B8990E0A0E0B0E0782F662755278E
:1055200044278C8990E0A0E0B0E0DC01992788272F
:10553000840F951FA61FB71F2E89AC01BD01420F16
:10554000511D611D711D8D8990E0A0E0B0E0BA2F62
:10555000A92F982F8827840F951FA61FB71F89830F
:105560009A83AB83BC832F892D83288D2E83398D1D
:105570003F833A8D38873B8D39878734934BA743D8
:10558000B34109F03BC180915E0390915F030097A6
:1055900021F48E81882381F019C12223D1F3DC010B
:1055A000ED91FC910088F189E02DBE016F5F7F4F86
:1055B0000995882371F34FC180915E0390915F0339
:1055C000009781F1DC01ED91FC910288F389E02DD7
:1055D00009959F81891326C010925F0310925E0384
:1055E0008AEB93E00E94CF090E94751C882329F062
:1055F00085E091E00E940E0CE2C00E94170C64E668
:1056000070E080E090E00E94952485E091E00E94A7
:105610000E0C64E670E080E090E00E9495240E9409
:10562000120CCDC08F8181508E3FE8F40E94751C12
:10563000882329F084E091E00E940E0C14C00E949F
:10564000170C64E670E080E090E00E94952484E00E
:1056500091E00E940E0C64E670E080E090E00E9411
:1056600095240E94120C8F81833009F474C028F4B1
:105670008130B1F008F040C00BC0853009F481C022
:1056800008F474C0863009F48AC08F3F09F097C0CF
:105690000E944D0D0E94470D81E00E9412158FC09F
:1056A00086E090E00E94CC2E8C01B885BFA3FC015F
:1056B00091828082128213821482158284EB92E09E
:1056C0000E94CF098FA10E941B0B0E94CF241B01B7
:1056D0002C01BFA12B2F30E0A0E6BAEE0E948F2E46
:1056E000DC01CB01820D931DA41DB51DF801828341
:1056F0009383A483B5835FC088E090E00E94CC2EA2
:105700008C018EE691E0D8018D939C93F801128272
:1057100013821482158285E086838EE1878382EA74
:1057200092E00E94CF090E94751C882381F068EEE8
:1057300073E080E090E00E9495248CE291E00E946A
:105740000E0C64EF71E080E090E00E949524C801A7
:105750000E947A1E30C082E090E00E94CC2E8C0124
:10576000DC016D927C9285E992E023C082E090E0BA
:105770000E94CC2E8C01FC01D182C08283E892E091
:1057800018C08CE090E00E94CC2E8C01DC011196B8
:10579000FC92EE921B961C928CE692E00AC082E08C
:1057A00090E00E94CC2E8C01FC01B182A08281E5A8
:1057B00092E00E94CF0910935F0300935E0360EDB7
:1057C00077E080E090E00E94952445C089E0FE01EA
:1057D0003196AAE2B2E001900D928A95E1F78091AC
:1057E0002F020E941B0B2FE232E030935B032093C9
:1057F0005A0380912F020E941B0B09C089E0FE0111
:105800003196AAE2B2E001900D928A95E1F7002369
:1058100011F180912A0290912B02A0912C02B0915B
:105820002D028734934BA743B34159F480912F0243
:10583000882389F080913002882369F00E94A018A3
:105840000AC010925C038CE291E00E941C0C0E9442
:105850007E1C0E9490230E944D0D0E94470D0E94C5
:105860005C0FD8CB0E94120C0E94611C80915304E3
:105870008111FACF809141048111F6CF80912F04DC
:105880008111F2CF0E94611C80E00E94121517CD99
:10589000993009F495CC8091580399CC80E00E940E
:1058A000611A9FCC10926A031092690388EE93E00C
:1058B000A0E0B0E080936B0390936C03A0936D0322
:1058C000B0936E0325EE31E03093680320936703B5
:1058D00025EC30E0309374032093730324EC30E024
:1058E000309376032093750320EC30E030937803F7
:1058F0002093770321EC30E030937A0320937903EF
:1059000022EC30E030937C0320937B0326EC30E0E4
:1059100030937E0320937D031092800310928103C5
:10592000109282031092830310927A0410927904E9
:1059300080937B0490937C04A0937D04B0937E04B9
:1059400081E092E0909378048093770410928E0423
:1059500010928D041092900410928F041092920471
:105960001092910410929404109293046091950403
:105970006E7F6D7F609395046695617081E0682706
:1059800083E00E94F90D61E083E00E945924E2E87F
:10599000F5E0E491E0938704EEE6F5E0E491F0E0D1
:1059A000EE0FFF1FEF59FA4F859194919093890460
:1059B0008093880460E082E00E94592480919504DD
:1059C00081FD04C061E082E00E94F90D82E08093D5
:1059D0008304E1E8F5E0E491E0938404EDE6F5E08A
:1059E000E491F0E0EE0FFF1FE95AFA4F8591949190
:1059F000909386048093850487E794E090936F04E6
:105A000080936E0482E390E0909375048093740415
:105A100081E08093760427EF31E030935F04209398
:105A20005E049AE090936C0499E090936D049EE07C
:105A300090934C0449E150E060E070E040934D04E5
:105A400050934E0460934F0470935004809351041C
:105A5000809352049FE090933A0440933B04509308
:105A60003C0460933D0470933E0480933F04809314
:105A7000400490E1909328044093290450932A0411
:105A800060932B0470932C0480932D0480932E0438
:105A900091E1909316044093170450931804609377
:105AA000190470931A0480931B0480931C0492E1E0
:105AB00090930404409305045093060460930704F4
:105AC000709308048093090480930A04089581E088
:105AD00092E09093780480937704809122029091D1
