:100000000C94F2010C941A020C941A020C946305DD
:100010000C9463050C9463050C941A020C941A0258
:100020000C941A020C941A020C941A020C941A02E0
:100030000C941A020C941A020C941A020C941A02D0
:100040000C94C1040C941A020C9431050C940B0509
:100050000C941A020C941A020C941A020C941A02B0
:100060000C941A020C941A0255534220656E746661
:1000700065726E742E005344204B61727465206566
:100080006E746665726E742E0055534220626572FE
:100090006569742E005344204B617274652062655B
:1000A000726569742E00555342206F6E6C696E65DF
:1000B0002E005344204B61727465206F6E6C696E24
:1000C000652E00546F6E75696E6F506C6179657244
:1000D0003A3A7365747570004164617074656420A8
:1000E000746F20506C6174666F726D494F20627935
:1000F000204A564D002863292054686F7273746536
:100100006E20566FC39F00546F6E55494E4F205658
:10011000657273696F6E20322E30004552524F5215
:100120003A20706C6179696E6720616E206D703362
:10013000206F722061647665727420747261636BE3
:100140002E2E2E004552524F523A206E6F74207060
:100150006C6179696E6700546F6E75696E6F506C73
:10016000617965723A3A7061757365004552524F14
:10017000523A206E6F20747261636B2F666F6C64ED
:1001800065722E2E2E004552524F523A20616C72EB
:100190006561647920706C6179696E6700546F6E77
:1001A00075696E6F506C617965723A3A72657375F4
:1001B0006D65004552524F523A206D696E20766F40
:1001C0006C756D65207265616368656400546F6E5F
:1001D00075696E6F506C617965723A3A6465635601
:1001E0006F6C756D65004552524F523A206D6178C3
:1001F00020766F6C756D652072656163686564005B
:10020000546F6E75696E6F506C617965723A3A69B8
:100210006E63566F6C756D65004E657720766F6CFA
:10022000756D653A2000566F6C756D6520696E635B
:10023000726561736520627574746F6E207072658B
:10024000737365642E004E657720766F6C756D65EF
:100250003A2000566F6C756D652064656372656148
:10026000736520627574746F6E2070726573736548
:10027000642E00547261636B206E65787420627521
:1002800074746F6E20707265737365642E0054729F
:1002900061636B207072657620627574746F6E2076
:1002A000707265737365642E006973204E4F54201D
:1002B000706C6179696E6700697320706C6179692F
:1002C0006E6700506C617920627574746F6E207077
:1002D0007265737365642E0043757272656E742067
:1002E000747261636B3A2000506C6179206275749E
:1002F000746F6E2070726573736564206C6F6E67C7
:100300002E00526573657420636172642E2E2E0078
:10031000507265762B506C61792B4E657874206233
:100320007574746F6E7320707265737365642E00DC
:1003300000000000240027002A000000000800023E
:100340000100000304070000000000000000546FDB
:100350006E75696E6F506C617965723A3A7374614B
:1003600072744D7033547261636B3A2000546F6E37
:1003700075696E6F506C617965723A3A7374617227
:10038000744164766572743A20002F00546F6E7564
:10039000696E6F506C617965723A3A737461727408
:1003A0003A20000000000023002600290000000081
:1003B00000250028002B00040404040404040402A3
:1003C00002020202020303030303030102040810F2
:1003D00020408001020408102001020408102000BF
:1003E000960C610911241FBECFEFD8E0DEBFCDBF50
:1003F00011E0A0E0B1E0E6E6FEE102C005900D925A
:10040000A035B107D9F722E0A0E5B1E001C01D9207
:10041000A53EB207E1F711E0C1EFD1E004C021979A
:10042000FE010E941B0FC03FD107C9F70E947D0942
:100430000C94260F0C940000CF92DF92EF92FF9263
:100440000F931F93CF93DF936C017A018B01C0E070
:10045000D0E0CE15DF0581F0D8016D918D01D60178
:10046000ED91FC910190F081E02DC6010995892B59
:1004700011F02196EECF7E01C701DF91CF911F9140
:100480000F91FF90EF90DF90CF900895FC01538D76
:10049000448D252F30E0842F90E0821B930B54175E
:1004A00010F0CF96089501970895FC01918D828DEB
:1004B000981761F0828DDF01A80FB11D5D968C91B8
:1004C000928D9F5F9F73928F90E008958FEF9FEFC3
:1004D0000895FC01918D828D981731F0828DE80F7F
:1004E000F11D858D90E008958FEF9FEF0895FC0139
:1004F000918D228D892F90E0805C9F4F821B910906
:100500008F739927089580EA91E00E94770221E095
:10051000892B09F420E0822F0895FC01848DDF01EE
:10052000A80FB11DA35ABF4F2C91848D90E0019666
:100530008F739927848FA689B7892C93A089B18955
:100540008C91837080648C93938D848D981306C0F6
:100550000288F389E02D80818F7D80830895EF925A
:10056000FF920F931F93CF93DF93EC0181E0888F6D
:100570009B8D8C8D981305C0E889F989808185FD54
:1005800026C0F62E0B8D10E00F5F1F4F0F73112743
:10059000E02E8C8DE8120CC00FB607FCFACFE8896C
:1005A000F989808185FFF5CFCE010E948D02F1CFC0
:1005B0008B8DFE01E80FF11DE35AFF4FF0829FB7CC
:1005C000F8940B8FEA89FB89808180620AC09FB70B
:1005D000F894EE89FF896083E889F98980818370C6
:1005E000806480839FBF81E090E0DF91CF911F9175
:1005F0000F91FF90EF900895CF93DF93EC01888DDA
:100600008823C9F0EA89FB89808185FD05C0A88916
:10061000B9898C9186FD0FC00FB607FCF5CF80819C
:1006200085FFF2CFA889B9898C9185FFEDCFCE01E6
:100630000E948D02E7CFDF91CF91089580E090E096
:10064000892B29F00E94830281110C9400000895E7
:1006500020919201309193012817390771F49091FC
:10066000900180919101981741F0E0919001F0E0A4
:10067000E05BFE4F808190E008958FEF9FEF08953B
:1006800008951F93CF93DF93DC015C968D919C912D
:100690005D97009739F421E030E013963C932E9358
:1006A00012973BC05196ED91FC91529750962C9128
:1006B0005097322F30951FB75E964C915E97742FEE
:1006C000727041FD6095F8944081772311F0422BC0
:1006D00001C043234083EC012197F1F748E05081AA
:1006E00060FF02C0522B01C053235083EC012197BD
:1006F000F1F76695415099F78081772319F08323AC
:10070000808302C0282B20831FBF5C968D919C9113
:100710005D970197F1F781E090E0DF91CF911F9114
:10072000089520919201309193012817390771F4AF
:10073000809191012091900190E0805C9F4F821BFD
:10074000910960E470E00E94F30E089580E090E06B
:100750000895209192013091930128173907B9F437
:100760009091900180919101981789F0E09190010A
:10077000F0E0E05BFE4F80812091900130E02F5F40
:100780003F4F2F7333272093900190E008958FEF10
:100790009FEF0895089580E090E008950F931F93D0
:1007A000FC0187818823C9F042855385648575855E
:1007B0000685178520893189401B510B620B730B0D
:1007C0000389148925893689401751076207730701
:1007D00010F480E002C091E0928B1F910F91089578
:1007E000FC018781811107C08185882331F09289BE
:1007F000992319F0128A80E0089508950E94210F2C
:100800000E94DC0721E0892B09F020E0822F089567
:10081000CF93DF93EC0188E291E00E94ED068BE23A
:1008200091E00E94ED06CE01DF91CF910C94690713
:100830003FB7F89480919C0190919D01A0919E01F9
:10084000B0919F0126B5A89B05C02F3F19F00196D6
:10085000A11DB11D3FBFBA2FA92F982F8827820F46
:10086000911DA11DB11DBC01CD0142E0660F771F96
:10087000881F991F4A95D1F708952FB7F894609172
:1008800098017091990180919A0190919B012FBFDD
:100890000895CF92DF92EF92FF920F931F93CF9321
:1008A000DF93EC010E943D046B017C0188810E9472
:1008B000DC079C018E8191E0811103C0232B21F480
:1008C00002C0232B09F090E04E855F856889798905
:1008D00097018601041B150B260B370B49815A81A2
:1008E0006B817C81041715072607370710F41986DA
:1008F0000CC08F8188879F83292F282729879817E5
:1009000021F0CE86DF86E88AF98ACA86DB86EC8605
:10091000FD868F81DF91CF911F910F91FF90EF9016
:10092000DF90CF900895CF93DF93EC018D818111FB
:1009300002C060E001C062E088810E9405088881F1
:100940000E94DC079C0181E02115310509F480E05B
:100950008F838E81882329F091E0232B09F090E08A
:100960009F830E943D046A877B878C879D872F81A8
:10097000288719866E877F87888B998BDF91CF9127
:1009800008951F920F920FB60F9211242F933F9349
:100990008F939F93AF93BF9380919801909199010A
:1009A000A0919A01B0919B013091970123E0230F10
:1009B0002D3720F40196A11DB11D05C026E8230F97
:1009C0000296A11DB11D20939701809398019093E9
:1009D0009901A0939A01B0939B0180919C01909101
:1009E0009D01A0919E01B0919F010196A11DB11D95
:1009F00080939C0190939D01A0939E01B0939F01D1
:100A0000BF91AF919F918F913F912F910F900FBE0A
:100A10000F901F9018951F920F920FB60F921124EE
:100A20002F933F934F935F936F937F938F939F93F6
:100A3000AF93BF93EF93FF9380EA91E00E948D0202
:100A4000FF91EF91BF91AF919F918F917F916F91A6
:100A50005F914F913F912F910F900FBE0F901F907C
:100A600018951F920F920FB60F9211242F938F9308
:100A70009F93EF93FF93E091B001F091B1018081DA
:100A8000E091B601F091B70182FD12C09081809192
:100A9000B9018F5F8F732091BA01821751F0E091F5
:100AA000B901F0E0E056FE4F958F8093B90101C087
:100AB0008081FF91EF919F918F912F910F900FBEA9
:100AC0000F901F9018951F920F920FB60F9211243E
:100AD0002F933F934F935F936F937F938F939F9346
:100AE000AF93BF93EF93FF93E0919201F091930145
:100AF000309709F451C0968DA685B785858591FFFD
:100B000004C09C91892329F447C09C91892309F052
:100B100043C0A389B4899C918589809589238C934E
:100B2000868997890197F1F7608D718DA685B785C4
:100B3000558538E020E0CB010197F1F7822F90E056
:100B400095958795282F4C91452309F020683150C1
:100B500091F7868D81FD20958091910190E001961D
:100B60008F73992730919001381749F0A091910126
:100B7000B0E0A05BBE4F2C938093910103C0868DA3
:100B80008160868F828D938D0197F1F7A389B48957
:100B90009C918589892B8C93FF91EF91BF91AF91A7
:100BA0009F918F917F916F915F914F913F912F9185
:100BB0000F900FBE0F901F9018958F929F92AF923B
:100BC000BF92CF92DF92EF92FF920F931F93CF933A
:100BD000DF93CDB7DEB72A970FB6F894DEBF0FBE0E
:100BE000CDBF7C018AE0882ECE0101966C015E01AA
:100BF00098E0A90EB11C99249394D7018D919C91F2
:100C0000DC01ED91FC910084F185E02D09950A97B6
:100C10000CF4A7C0F601882D11928A95E9F741E0FE
:100C200050E0B601D7018D919C910E947B078130E5
:100C3000B9F589818E3799F749E050E0BE016E5FC2
:100C40007F4FF701808191810E947B078F5F8A30FF
:100C500050F18A818F3F51F58B81863039F58A8535
:100C60008F3E21F5FE01329680E090E02191820FC7
:100C7000911DAE16BF06D1F79195819591092885F2
:100C800039853227232732278217930791F48C81E5
:100C90000E811F811027012710278E3368F013C0A3
:100CA00001E810E04CC002E810E049C003E810E0A1
:100CB00046C004E810E043C08C3370F48A3359F125
:100CC0008B3399F19ACF8F33A9F0803409F095CF07
:100CD000C8010E94080491CF80E491E00E94ED06D3
:100CE000C8010E94690764E670E080E090E00E941D
:100CF000410883CF01FF06C0D70118969C9282EB72
:100D000090E006C000FF79CFF701908686EA90E078
:100D10000E945B0772CF01FF03C085E990E0F8CF26
:100D200000FF6BCF89E890E0F3CF01FF03C086E7B7
:100D300090E0EECF00FF61CF88E690E0E9CF0115AB
:100D4000110509F45ACFC8010E940804D7018D91FA
:100D50009C91DC01ED91FC910084F185E02D0995D9
:100D60004CCF2A960FB6F894DEBF0FBECDBFDF91F1
:100D7000CF911F910F91FF90EF90DF90CF90BF9098
:100D8000AF909F908F900895833081F028F4813048
:100D900099F08230A1F008958730A9F08830B9F039
:100DA0008430D1F4809180008F7D03C080918000D9
:100DB0008F7780938000089584B58F7702C084B5C3
:100DC0008F7D84BD08958091B0008F7703C080919E
:100DD000B0008F7D8093B0000895009769F0FC010A
:100DE00001900020E9F73197AF01481B590BBC0176
:100DF00080EA91E00C941C0280E090E008958F92CC
:100E00009F92AF92BF920F931F93CF93DF93CDB773
:100E1000DEB7A1970FB6F894DEBF0FBECDBF19A203
:100E2000423008F44AE08E010F5D1F4F842E912C52
:100E3000A12CB12CA50194010E94C20EE62FB9018C
:100E4000CA0101501109EA3014F4E05D01C0E95C07
:100E5000D801EC93232B242B252B61F7C8010E948A
:100E6000ED06A1960FB6F894DEBF0FBECDBFDF91A1
:100E7000CF911F910F91BF90AF909F908F90089549
:100E80000F931F93CF93DF938C01C0E0D0E0F80164
:100E9000EC0FFD1F6491662341F080EA91E00E940F
:100EA000AF02892B11F02196F2CFCE01DF91CF91C5
:100EB0001F910F910895CF93DF930E944007EC019B
:100EC00088E291E00E94ED068C0F9D1FDF91CF918B
:100ED0000895CF93DF93BC0180E090E04AE00E9448
:100EE000FF06EC0188E291E00E94ED068C0F9D1F49
:100EF000DF91CF9108958F929F92AF92BF92CF9240
:100F0000DF92EF92FF920F931F93CF93DF93EC0149
:100F10006A017B0100E010E00C151D0561F10E94E3
:100F20003D04688779878A879B87E881F9810284F5
:100F3000F385E02DCE01099597FF17C00E943D046F
:100F400088849984AA84BB84DC01CB01881999091F
:100F5000AA09BB098C809D80AE80BF808815990549
:100F6000AA05BB0510F3680106C0F70181937F0154
:100F70000F5F1F4FD1CFC601DF91CF911F910F910E
:100F8000FF90EF90DF90CF90BF90AF909F908F90A9
:100F90000895CF93DF93682F70E080E090E04AE0FF
:100FA0000E94FF06EC0188E291E00E94ED068C0FA2
:100FB0009D1FDF91CF910895CF93DF93282F30E0CD
:100FC000F901E65CFC4F8491F901E553FC4FD491A3
:100FD000F901E954FC4FC491CC2391F081110E9496
:100FE000C406EC2FF0E0EE0FFF1FED55FC4FA5916E
:100FF000B491EC91ED2381E090E021F480E002C017
:1010000080E090E0DF91CF910895CF93DF9390E05F
:10101000FC01E553FC4F2491FC01E954FC4F849101
:10102000882361F190E0880F991FFC01E05DFC4F7F
:10103000C591D491FC01E355FC4FA591B491611188
:1010400009C09FB7F8948881209582238883EC910A
:101050002E230BC0623061F49FB7F8948881322F41
:10106000309583238883EC912E2B2C939FBF06C051
:101070008FB7F894E8812E2B28838FBFDF91CF9113
:1010800008958F929F92AF92BF92CF92DF92EF928C
:10109000FF926B017C010E9418044B015C01C1149A
:1010A000D104E104F104F1F00E941804DC01CB0149
:1010B00088199909AA09BB09883E9340A105B10581
:1010C00070F321E0C21AD108E108F10888EE880E19
:1010D00083E0981EA11CB11CC114D104E104F104E9
:1010E00019F7DDCFFF90EF90DF90CF90BF90AF90DA
:1010F0009F908F9008958F929F92AF92BF92EF92A0
:10110000FF920F931F93CF93DF93CDB7DEB72A974C
:101110000FB6F894DEBF0FBECDBF8C01CE01019695
:101120007C018AE0D7011D928A95E9F78EE78983D1
:101130008FEF8A8386E08B838FEE8A876C835E8352
:101140004F83FE0132969E01285F3F4F80E090E082
:101150004191840F911D2E173F07D1F791958195ED
:101160009109988789870E943D04F80182809380C5
:10117000A480B580AB01BC01481959096A097B09F3
:1011800086819781A0E0B0E0481759076A077B077E
:1011900018F0808581110AC0C8010E94DD0561E058
:1011A00070E080E090E00E944108DDCF82E390E0B3
:1011B0009783868380819181DC01ED91FC9102808F
:1011C000F381E02D4AE050E0B70109950E943D040B
:1011D000F80162837383848395832A960FB6F8940B
:1011E000DEBF0FBECDBFDF91CF911F910F91FF905A
:1011F000EF90BF90AF909F908F900895CF93C82F9E
:101200008CE893E00E9440076C2F70E080E090E053
:101210004AE00E94FF068AE893E00E94400781E0CE
:101220000E94C907E0EBF2E0C58381E08683148267
:101230004C2F50E0542F442741606FE08081918112
:101240000E947B0864E670E080E090E0CF910C940F
:101250004108CF93DF93EC018DE693E00E944007B5
:10126000CE010E946907AE0163E18091B0029091C6
:10127000B1020E947B0864E670E080E090E0DF91BC
:10128000CF910C944108CF93DF93EC018EE493E06F
:101290000E944007CE010E946907E0EBF2E016824F
:1012A000158210861782AE0162E1808191810E94D1
:1012B0007B0864E670E080E090E0DF91CF910C94D1
:1012C00041088AE191E09093BE028093BD02809133
:1012D0009201909193018D5B924071F4E091D00264
:1012E000F091D10290818091D202809589238083F0
:1012F00010929301109292010895789484B58260BF
:1013000084BD84B5816084BD85B5826085BD85B5A9
:10131000816085BD80916E00816080936E00109227
:1013200081008091810082608093810080918100A2
:101330008160809381008091800081608093800033
:101340008091B10084608093B1008091B000816091
:101350008093B00080917A00846080937A008091BD
:101360007A00826080937A0080917A008160809315
:101370007A0080917A00806880937A001092C10090
:10138000E091B001F091B10182E08083E091AC0185
:10139000F091AD011082E091AE01F091AF0180E1DA
:1013A00080831092B801E091B401F091B50186E01C
:1013B0008083E091B201F091B301808180618083EC
:1013C000E091B201F091B301808188608083E09167
:1013D000B201F091B301808180688083E091B20115
:1013E000F091B30180818F7D808380E480937C00C5
:1013F00080917A00806480937A0080917A0086FDE3
:10140000FCCF609178008091790070E0782B072EF6
:10141000000C880B990B611571058105910511F080
:101420000E94870E87E091E00E945B0785EF90E0C5
:101430000E945B0788ED90E00E945B078DE392E0DD
:101440000E94930484E592E00E9493048BE692E06C
:101450000E94930482E892E00E94930489E992E05A
:101460000E94930483EC90E00E945B0760E080910F
:10147000B2020E9405080091B0021091B102D80199
:10148000ED91FC91138E128E118E108E178A168A92
:101490008DE991E0958F848F9485963108F04EC048
:1014A0002DEB30E0378B268B2BE931E0318F208F0D
:1014B0002CE231E0338F228F30916800983058F061
:1014C00021E09E3008F420E091E0892F01C0880FD0
:1014D0002A95EAF701C084E0832B80936800948505
:1014E000983038F09E3040F0963148F020E030E0FF
:1014F00008C02DE630E005C02BE630E002C02CE647
:1015000030E0348B238B983030F481E001C0880FB9
:101510009A95EAF70EC0292F30E09E3018F4285033
:10152000310902C02E50310981E001C0880F2A958F
:10153000EAF7858B848D958D0197F1F7828D938DD8
:10154000892B29F1A0919201B0919301EA17FB0731
:10155000F1F0109759F053962D913C915497E90171
:10156000988155968C91809589238883868D8E7F6E
:10157000868F1092910110929001F0939301E09365
:101580009201A389B4899C918589892B8C93D80178
:10159000ED91FC9180E197E2A0E0B0E08483958337
:1015A000A683B7830E943D04E8016A837B838C8312
:1015B0009D834091BB0250E066E08091B002909123
:1015C000B1020E947B088091B0029091B1020E940A
:1015D000DD058DE392E00E94490484E592E00E94DB
:1015E00049048BE692E00E94490482E892E00E945E
:1015F000490489E992E00E94490484E592E00E944E
:10160000CE03882379F18DE392E00E94CE038823F4
:1016100049F18BE692E00E94CE03882319F1809174
:10162000B2029091B3020E94000481111BC080E1BC
:1016300093E00E945B0782E093E00E945B0780E2F8
:1016400093E00E9443096AE070E080E090E00E942D
:1016500041088091B2029091B3020E94000481116E
:10166000F2CF26C08DE392E00E94CE03882301F1E1
:1016700088EE92E00E945B078091B2029091B302E3
:101680000E9400048823A1F0C091B602D0E0D0935C
:101690009601C093950188ED92E00E944007CE012B
:1016A0000E94690780919501909196010E942909F5
:1016B0008DE392E00E94F003882309F457C083EC85
:1016C00092E00E945B078091B2029091B3020E9467
:1016D0000004882311F188EB92E00E945B0787E504
:1016E00091E00E945B078091B2029091B3020E9448
:1016F0000004811103C084E491E036C08091B502FA
:10170000882341F08091B602882321F040E050E028
:101710006EE021C08BE191E027C089EA92E00E944F
:101720005B078DE991E00E945B078091B202909186
:10173000B3020E940004882319F086E891E014C0E7
:101740008091B502882371F08091B602882351F010
:1017500040E050E06DE08091B0029091B1020E94B3
:101760007B0804C08CE691E00E945B0784E592E070
:101770000E94F003882339F08EE892E00E945B0714
:1017800081E00E94FE088BE692E00E94F00388232D
:1017900039F083E792E00E945B0783E00E94FE0835
:1017A00082E892E00E94F003882309F442C083E5B6
:1017B00092E00E945B078DEC91E00E945B078091B4
:1017C000BB02882321F081508093BB0204C083EBCD
:1017D00091E00E945B074091BB0250E066E080917F
:1017E000B0029091B1020E947B08C091BB02C093ED
:1017F000940186E492E00E9440078C2F0E94C90762
:101800008091B2029091B3020E94000490919401E1
:10181000882329F0892F90E00E9429090AC0892F86
:1018200090E00E94430968EE73E080E090E00E943F
:10183000410889E992E00E94F003882309F444C03A
:1018400086E292E00E945B0780E092E00E945B07E4
:101850008091BB029091BC02891720F48F5F809326
:10186000BB0204C086EE91E00E945B074091BB0280
:1018700050E066E08091B0029091B1020E947B0836
:10188000C091BB02C093940189E192E00E9440079D
:101890008C2F0E94C9078091B2029091B3020E94DE
:1018A000000490919401882329F0892F90E00E94F0
:1018B00029090AC0892F90E00E94430968EE73E06D
:1018C00080E090E00E9441080E941E037CCE1F939E
:1018D000CF93DF93282F30E0F901E65CFC4F849131
:1018E000F901E553FC4FD491F901E954FC4FC4913F
:1018F000CC23C1F0162F81110E94C406EC2FF0E01A
:10190000EE0FFF1FE355FC4FA591B4919FB7F894DC
:10191000111104C08C91D095D82302C0EC91DE2B1C
:10192000DC939FBFDF91CF911F9108950F931F9379
:101930001092A3011092A20188EE93E0A0E0B0E023
:101940008093A4019093A501A093A601B093A70151
:1019500028E031E03093A1012093A00125EC30E094
:101960003093AD012093AC0124EC30E03093AF0113
:101970002093AE0120EC30E03093B1012093B00110
:1019800021EC30E03093B3012093B20122EC30E03F
:101990003093B5012093B40126EC30E03093B701C9
:1019A0002093B6011092B9011092BA011092BB01B6
:1019B0001092BC011092C0021092BF028093C1022B
:1019C0009093C202A093C302B093C4028AE191E053
:1019D0009093BE028093BD021092D4021092D30263
:1019E0001092D6021092D5021092D8021092D7020D
:1019F0001092DA021092D9026091DB026E7F6D7F45
:101A00006093DB026695617081E0682783E00E9445
:101A1000670C61E083E00E940508EEECF3E0E491DE
:101A2000E093CD02EAEBF3E0E491F0E0EE0FFF1F6C
:101A3000E355FC4F859194919093CF028093CE0211
:101A400060E082E00E9405088091DB0281FD04C015
:101A500061E082E00E94670C82E08093C902EDECB5
:101A6000F3E0E491E093CA02E9EBF3E0E491F0E003
:101A7000EE0FFF1FED55FC4F859194919093CC0292
:101A80008093CB028DEB92E09093DD028093DC0299
:101A900082E390E09093E3028093E20281E08093FE
:101AA000E4022CED32E03093B1022093B00224E046
:101AB00030E03093B3022093B2021092B40210923D
:101AC000B5021092B6021092B8021092B7021092AC
:101AD000BA021092B9029FE09093BB022EE12093CC
:101AE000BC022EE020933D0209E110E020E030E04E
:101AF00000933E0210933F02209340023093410234
:101B0000809342028093430248EE53E060E070E02D
:101B100040935002509351026093520270935302CB
:101B2000909354020093550210935602209357024B
:101B3000309358028093590280935A02409367026F
:101B4000509368026093690270936A0290E19093E7
:101B50006B0200936C0210936D0220936E0230931F
:101B60006F02809370028093710240937E025093C3
:101B70007F02609380027093810291E190938202D0
:101B8000009383021093840220938502309386028F
:101B90008093870280938802409395025093960227
:101BA000609397027093980292E190939902009348
:101BB0009A0210939B0220939C0230939D02809383
:101BC0009E0280939F024093AC025093AD026093BB
:101BD000AE027093AF021F910F9108958F929F9262
:101BE000AF92BF92CF92DF92EF92FF92CF93DF93AB
:101BF000EC01688179818A819B816115710581057C
:101C0000910521F464E279ED8BE597E02DE133EF66
:101C100041E050E00E94900E49015A019B01AC0145
:101C2000A7EAB1E40E94AF0E6B017C01ACEEB4EF09
:101C3000A50194010E94BD0EDC01CB018C0D9D1D00
:101C4000AE1DBF1DB7FF03C00197A109B04888832F
:101C50009983AA83BB83BC01CD019F77DF91CF918C
:101C6000FF90EF90DF90CF90BF90AF909F908F90BC
:101C700008958F929F92AF92BF92CF92DF92EF9290
:101C8000FF92609100017091010180910201909199
:101C90000301611571058105910521F464E279ED77
:101CA0008BE597E02DE133EF41E050E00E94900E8C
:101CB00049015A019B01AC01A7EAB1E40E94AF0EB1
:101CC0006B017C01ACEEB4EFA50194010E94BD0E46
:101CD000DC01CB018C0D9D1DAE1DBF1DB7FF03C0E8
:101CE0000197A109B0488093000190930101A0934E
:101CF0000201B0930301BC01CD019F77FF90EF90EB
:101D0000DF90CF90BF90AF909F908F900895609399
:101D100000017093010180930201909303010895E3
:101D2000052E97FB1EF400940E94A70E57FD07D0C6
:101D30000E94C20E07FC03D04EF40C94A70E5095DF
:101D40004095309521953F4F4F4F5F4F08959095A7
:101D50008095709561957F4F8F4F9F4F08950E949A
:101D6000E40EA59F900DB49F900DA49F800D911D32
:101D700011240895B7FF0C94AF0E0E94AF0E821B82
:101D8000930B0895A1E21A2EAA1BBB1BFD010DC0E7
:101D9000AA1FBB1FEE1FFF1FA217B307E407F5071B
:101DA00020F0A21BB30BE40BF50B661F771F881FF7
:101DB000991F1A9469F760957095809590959B018D
:101DC000AC01BD01CF010895A29FB001B39FC00136
:101DD000A39F700D811D1124911DB29F700D811D57
:101DE0001124911D089597FB072E16F4009407D037
:101DF00077FD09D00E94070F07FC05D03EF49095AF
:101E000081959F4F0895709561957F4F0895AA1B06
:101E1000BB1B51E107C0AA1FBB1FA617B70710F0D5
:101E2000A61BB70B881F991F5A95A9F78095909507
:101E3000BC01CD010895EE0FFF1F0590F491E02D38
:101E4000099481E090E0F8940C94260F11E0C1EF22
:101E5000D1E004C0FE010E941B0F2196C23FD107B2
:061E6000C9F7F894FFCF62
:101E66000100000000000000AF021C024602FC0256
:101E76007702550269020000000041031C02CB03F1
:101E860040039103A90328030D0A004446506C61E0
:101E960079657220436F6D204572726F723A200029
:101EA600547261636B206265656E6465743A2000E6
:00000001FF
